:400000000080002011000000F5020000F502000080B500AF024A034B1B68136000F074F9BC760040FA46004010B5054C237833B9044B13B10448AFF300800123237010BDBC
:40004000A081FF1F00000000302F0000084B10B51BB108480849AFF300800848036803B910BD074B002BFBD0BDE81040184700BF00000000302F0000A481FF1F0881FF1F53
:400080000000000090B583B000AF0023BB71774B1B0C9BB2012001211A464FF4804302F0F3F903461A46724B1A700023FB7109E0FC7902F0FDFB03461A466E4B1A55FB7901
:4000C0000133FB71FB79092BF2D90023FB710FE0FB79684AD15CFB790133664AD35C084620211A46052302F011FCFB790133FB71FB79082BECD95F4B5A7A5E4B1B781046EF
:4001000020211A46052302F001FC0023FB7110E0FB79584AD15CFB795B01544A13449BB20846194645F6823202F030FCFB790133FB71FB79092BEBD94D4B1A784D4B1B78A4
:400140001046194602F046FB4B4802F0D1F962B60020012100F048FB02F04EFD00BF00F0FDFC0346002BFAD000F004FD0346002B1BD000F0F3FC0346002B16D0012000F0FE
:4001800013FD0346002B10D03C4B00221A803C4B00221A803B4B00221A700023BB713A4B00221A70022000F033FE022000F00EFD0346012B45D1BB79002B33D12F4B1B8838
:4001C0009BB25B01294A134402201946202200F097FD00BF022000F0F9FC0346012BF9D002F0C8F9254B1B889BB201339AB2234B1A80224B1B889BB2092B03D81F4B1B882D
:400200009BB200E000231D4A138002F0A7F91E4B1B78DBB20133DAB21B4B1A70022000F0F7FD04E0022000F0F3FD0023BB71144B1B889AB2114B1B889BB29A4201D1012302
:40024000BB71104B1B78DBB2002B0DD10E4B1B78DBB2052B08D1064B1B781846012102F0D3F9084B01221A707EE700BFD081FF1FCC81FF1F1083FF1F8D020000BE81FF1F8F
:40028000BC81FF1FC081FF1FC181FF1F80B500AF134B1B889BB201339AB2114B1A80104B1B889BB2092B03D80D4B1B889BB200E000230B4A13800A4B1B889AB2094B1B88B4
:4002C0009BB29A420AD1084B1B78184602F0E2F9064B00221A70064B00221A7080BD00BFBC81FF1FBE81FF1FCC81FF1FC081FF1FC181FF1F80B500AF02F0DAFD03461B6898
:400300000C2B00D1FEE7FEE780B586B000AF224B7B61224B3B61204B7B6135E03B691B68FB603B695B68BB603B699B683B6000237B600CE0FB681A68BB681A60BB68043317
:40034000BB60FB680433FB607B6804337B607A683B689A42EED13B69DB683B6000237B6008E0BB6800221A60BB680433BB607B6804337B607A683B689A42F2D13B691033BC
:400380003B617B69013B7B617B69002BC6D102F095FDFFF777FEFEE701000000D834000080B582B000AF184B184A1A60184A184B1B6843F40073136000237B600FE07B6894
:4003C000032B04D8134A7B6852F8233000E0124B12497A6841F822307B6801337B607B682F2BECD90E4B1B78DAB20E4B1A700E4B0A4A1A6000F03EF902F0D8F80B4B00223A
:400400001A600837BD4680BD0CED00E00004FA0514ED00E000000000F50200000080FF1FBC7600400481FF1F08ED00E00081FF1F80B582B000AF78603960786800213A68BE
:4004400002F06DFD0837BD4680BD00BF80B584B000AFF860B9607A60F868B9687A6802F053FD1037BD4680BD80B584B000AFF860B9607A60F868B9687A6802F045FD103712
:40048000BD4680BD80B483B000AF0346FB71FEE780B487B000AF7860396000233B6100237B6127E07B699B007A6813441B68BB60BB68FB73BB6823F0FF03BB6014E03B692A
:4004C0005B003A6813441B781A46BB68134419463B695B003A6813445B780B703B6901333B61FB7B013BFB73FB7B002BE7D17B6901337B617B69102BD4D91C37BD465DF83E
:40050000047B704780B582B000AF334B03221A80324B19221A70324B40F2ED221A80314B19221A70304B06221A70304B52221A702F4B304A1278D2B21A702F4B40F618025B
:400540001A802E4B41F251221A800023FB7019237B6014E0FB785B00DAB2294B1B78DBB203F00103DBB21343DBB203F00303FB704FF4F07002F050FB7B68013B7B607B6819
:40058000002B02D0FB78032BE4D17B68002B02D10320FFF777FF1B4B4FF480721A80194B07221A70184B00221A70184B48221A70144B00221A70164B00221A70154B02222A
:4005C0001A70154A144B1B78DBB243F00303DBB213700837BD4680BD804000408240004084400040864000400043004000420040A14600400F0100492242004020420040F4
:40060000254200400440004006400040084000400940004001400040A243004080B483B000AF0E4B1B78FB710D4AFB7903F00703DBB213700B4AFB791B09DBB213700A4BBA
:4006400001221A70094B10221A70094B44221A700C37BD465DF8047B704700BFCF0100496E5800406F5800400D510040905A00407658004080B582B000AF72B6424B61229F
:400680001A70FFF73FFF404B01221A703F4A3F4B1B78DBB243F00403DBB213700023FB7113E0FA7913465B0013445B00384A13443B603B681A683B689B889BB2104619460B
:4006C000FFF7B6FEFB790133FB71FB79052BE8D930483149FFF7DCFE30480421FFF7A8FE2F4830490422FFF7BFFE2F480421FFF79FFE2E480421FFF79BFE2D4A2C4B1B7839
:40070000DBB243F00203DBB213702A4A294B1B78DBB243F00203DBB21370274A264B1B78DBB243F04003DBB21370244A234B1B78DBB243F01003DBB21370214821490822BD
:40074000FFF792FE204821490822FFF78DFE204820490A22FFF788FE1F4820490822FFF783FE1F4A1E4B1B78DBB243F00803DBB21370FFF753FF1B480F490E22FFF766FEBF
:400780000837BD4680BD00BF00480040E8460040342F0000582F00009C2F000000760040087600403831000010760040287600400350014013500140A0430040C24300402F
:4007C000025100403C310000C251004044310000F05100404C310000125100405831000022430040B043004080B582B000AF03460A46FB711346BB71084B1B78002B04D1A9
:4008000000F00EF8054B01221A70FA79BB791046194600F0E5F80837BD4680BDC281FF1F80B582B000AF02F0FFF903467B715A4A594B1B78DBB243F00103DBB21370574A37
:40084000564B1B78DBB243F00103DBB21370544B01221A70534B02221A70534A524B1B78DBB203F07F03DBB21370002002F0C8F84E4A4E4B1B78DBB223F00603DBB21370AA
:400880004B4A4B4B1B78DBB223F02003DBB21370464A464B1B78DBB243F00103DBB21370012002F0ADF8282002F0AAF8414A414B1B78DBB203F07F03DBB213703D4A3D4BC0
:4008C0001B78DBB223F04003DBB21370374A374B1B78DBB243F00203DBB21370022002F08FF8324A314B1B78DBB243F00403DBB21370314B00221A70304B00221A70002398
:40090000FB8006E0FB882E4AFF21D154FB880133FB80FB88082BF5D97B79184602F088F91720072102F0A6F81720264902F07AF81820072102F09EF81820234902F072F8BA
:400940001520072102F096F81520204902F06AF80120072102F08EF801201D4902F062F80220072102F086F802201A4902F05AF81620002102F07EF81620174902F052F800
:400980000C20072102F076F80C20144902F04AF80837BD4680BD00BFA5430040B54300409D60004009600040106000409443004012600040F85100408460004085600040F7
:4009C0002883FF1F2D150000650E00002115000085140000CD140000391500003916000080B582B000AF03460A46FB711346BB71314AFB791370314B00221A70304B002255
:400A00001A70304B00221A702F4B00221A702F4B00221A702E4B00221A702E4B00221A702D4B4FF400021A602B4B4FF080721A60294B4FF400121A60274B02221A60264B53
:400A400004221A60254B21221A70234B4FF480021A60234B20221A70BB79002B02D0012B09D011E01F4A1F4B1B78DBB223F00103DBB2137011E01B4A1A4B1B78DBB243F063
:400A80000103DBB2137008E0164A164B1B78DBB243F00103DBB2137000BF134B03221A70124B80221A70012002F0B6F8104B04221A700837BD4680BD4883FF1F4E83FF1F9A
:400AC0004C83FF1F4D83FF1F4983FF1F3483FF1F4B83FF1FC483FF1F00E100E09E6000409C6000400960004028600040086000401260004080B400AF0F4B00221A700F4BC2
:400B000000221A700E4B00221A700E4B00221A700D4B00221A700D4B00221A700C4B00221A700C4B03221A700B4B80221A70BD465DF8047B704700BF4E83FF1F4C83FF1F43
:400B40004D83FF1F4983FF1F3483FF1F4B83FF1FC483FF1F286000400860004080B400AF034B1B78DBB21846BD465DF8047B70474D83FF1F80B483B000AF0023FB71094BE3
:400B80001B78DBB2002B05D0064B1B78FB71054B00221A70FB7918460C37BD465DF8047B704700BF4C83FF1F80B483B000AF0346FB71FB79044AD35CDBB218460C37BD468D
:400BC0005DF8047B704700BF3883FF1F80B483B000AF0346FB71FA79064913465B0013449B000B445B78DBB218460C37BD465DF8047B70475883FF1F80B485B000AF034667
:400C0000FB710023FB81FB79002B1BD0FB79082B18D8104AFB791B0113441B78DBB29BB203F00F03FB81FB891B029AB20949FB791B010B445B78DBB29BB21343FB81FB8938
:400C4000023BFB81FB8918461437BD465DF8047B704700BFFC5F004090B585B000AF03463960FB71FA79234913465B0013449B000B441B79DBB2DBB25BB2002B06DA3B68F2
:400C80001B0CFB814FF48043BB8105E04FF48043FB813B681B0CBB81FB79012B02D0062B0CD017E0FC79FA89BB890020002101F037FF03461A46104B1A550BE0FC79FA8972
:400CC000BB890020002101F0F7FE03461A460A4B1A5500BFFB79002B09D0FB79082B06D8FC7901F0E5FD03461A46044B1A551437BD4690BD5883FF1F1C83FF1F2883FF1F97
:400D000080B582B000AF03463960FB711346BB803B68002B6FD0FB79002B6CD0FB79082B69D8FB791846FFF767FF03461A46BB88934205D9FB791846FFF75EFF034600E0D0
:400D4000BB88BB80FB792F4AD35CFF2B04D1FB7918463968FFF780FFFB792B4AD35C184601F098FCFB79274AD25CBB8810461946FE22122301F0CAFDFB79224AD15CFB795E
:400D80001B0103F10802214B13449AB23B689BB2084611461A4601F0F9FDFB791A4AD15CFB79184AD35C0846194601F013FDFB79154AD35C1846012101F026FC1349FB7911
:400DC0001248FA79120102441278D2B242F00202D2B21B010B441A700C49FB790B48FA79120102441278D2B222F00202D2B21B010B441A7001E00023BB80BB88184608376C
:400E0000BD4680BD2883FF1F1C83FF1F7060004090B482B000AF0346FB71FB79002B19D0FB79082B16D8FA790C4913465B0013449B000B4400225A700948F979FA79074CB3
:400E400013465B0013449B0023445B79DAB20B0103449A700837BD4690BC70475883FF1FFC5F004080B582B000AF374B1B78BB71BB7903F01003002B63D00123FB71BB791C
:400E80005BB2002B13DABB7903F00F03012B02D00023FB711DE000F061F82C4B1B78DBB2DBB25BB2002B14DA0023FB7111E0BB7903F04003002B02D000F094F809E0BB7937
:400EC00003F02003002B02D000F0B2F801E00023FB71FB79002B34D01B4B1B78BB71BB795BB2002B2DDB1A4B1B78DAB2194B1B78DBB21343BB71184ABB791370164B1B7802
:400F0000DBB2BA799A421CD1104B1B78FB710E4B1B78DBB223F07F03BB71BB79002B0AD1094B0A4A1278D2B21A70074B1B78DBB203F00F03FB71054B1B78DBB2FA799A4278
:400F4000E2D10837BD4680BD286000403583FF1F4A83FF1FC583FF1F2960004080B582B000AF1D4B1B78FB711B4AFB7913701A4B1B78FB71FB795BB2002B03DA174AFB79EC
:400F8000137025E0022000F043FA154B1B78DBB203F06003202B08D0402B0BD0002B0ED100F050FB0346FB710CE001F045FE0346FB7107E001F04CFA0346FB7102E0002374
:400FC000FB7100BFFB79002B02D1044B03221A700837BD4680BD00BF286000403583FF1F0060004080B500AF104B1B78DBB2062B19D801A252F823F02710000027100000EB
:4010000015100000271000001B100000271000002110000000F0FAF806E000F0A9F903E000F0D2F900E000BF80BD00BF4E83FF1F80B500AF124B1B78DBB2062B1DD801A215
:4010400052F823F07B1000007B100000611000007B100000671000007B1000006D10000000F0DAF80AE000F029F907E0032000F0CFF9044B03221A7000E000BF80BD00BF69
:401080004E83FF1F3583FF1F80B483B000AF0023FB71294B1B78DBB29AB2284B1B889BB213449AB2254B1A8015E02549FB79254A52681278D2B2CA54224B5B680133214ADB
:4010C0005360FB790133FB711E4B1B889BB2013B9AB21C4B1A801B4B1B889BB2002B02D0FB79072BE1D9144B1B78DBB2082B02D0FB79002B0FD0144B1B78DBB283F07F031E
:40110000DB43DAB2104B1A70104B0F221A70104B02221A7005E00D4B02221A700C4B02221A700C4AFB791370034AFB7913700C37BD465DF8047B7047C483FF1FCA83FF1FDF
:40114000006000403C83FF1F4A83FF1F3583FF1F4E83FF1FC583FF1F80B582B000AF164B1B889BB2002B02D100F02EF81EE0134B02221A70124B00221A7000F069F9114BA0
:40118000DB79DBB29BB21B029AB20E4B9B79DBB29BB21343FB80084B1B889BB2FA889A4202D2054AFB881380FFF76EFF012318460837BD4680BD00BF3C83FF1F4E83FF1FB7
:4011C0004A83FF1F0060004080B400AF0A4B02221A700A4B80221A70094B0F221A70094B00221A70084B00221A7001231846BD465DF8047B704700BF4E83FF1F4A83FF1F46
:401200003583FF1FC483FF1FC583FF1F80B500AFFFF73AFF80BD00BF80B500AF0A4B1B78DBB29AB2094B1B889BB213449AB2074B1A80074B00221A70012000F0E9F8054B46
:4012400003221A7080BD00BFC483FF1FCA83FF1F4E83FF1F3583FF1F80B582B000AF124B04221A70114B80221A7000F0F1F8104BDB79DBB29BB21B029AB20D4B9B79DBB2BF
:401280009BB21343FB800B4B1B889BB2FA889A4202D2084AFB881380074B0B221A70012318460837BD4680BD4E83FF1F4A83FF1F006000403C83FF1F3583FF1F80B483B092
:4012C00000AF0023BB71234B1B78DBB203F00F03DBB2023BFB71FB799AB21F4B1B889BB213449AB21C4B1A8018E01C4B5B681C49BA798A5CD2B21A70184B5B680133174A00
:401300005360BB790133BB71FB79013BFB71134B1B889BB2013B9AB2104B1A800F4B1B889BB2002B02D0FB79002BDED10D4AFB7913700D4B1B78DBB283F07F03DB43DAB285
:40134000094B1A70094B0B221A700C37BD465DF8047B704729600040CA83FF1F3C83FF1F00600040C583FF1F4A83FF1F3583FF1F80B500AF044B00221A70012000F048F8AB
:40138000024B03221A7080BD4E83FF1F3583FF1F80B400AF084B06221A70084B06221A70074B80221A70074B00221A7001231846BD465DF8047B70474E83FF1F3583FF1FF1
:4013C0004A83FF1FC583FF1F80B500AF0C4B1B78DBB2002B0AD00B4A094B1B78DBB263F07F03DBB21370064B00221A70064B00221A70012000F00CF8044B03221A7080BD44
:401400003483FF1F086000404E83FF1F3583FF1F80B483B000AF0346FB710B4B9B68002B0CD0094B9B68FA791A70074B9B68074A128892B25A80044B00229A600C37BD46DC
:401440005DF8047B704700BF3C83FF1FCA83FF1F80B400AF094B00221A80094B9B68002B07D0074B9B6800221A70054B9B6800225A80BD465DF8047B704700BFCA83FF1F86
:401480003C83FF1F80B400AF0D4B01221A700D4B9B7C0D4B1B7BDBB203F00303012B08D0094BDB7BDBB283F07F03DB43DAB2064BDA73054B01225A73BD465DF8047B70473E
:4014C0000B600040FC5F00405883FF1F80B400AF104B20221A70104B93F862300F4B93F84830DBB203F00303012B0AD00B4B93F84B30DBB283F07F03DB43DAB2074B83F8ED
:401500004B20064B012283F84920BD465DF8047B704700BF0B600040FC5F00405883FF1F80B400AFBD465DF8047B704780B500AFFFF7E0FA80BD00BF90B482B000AF0123F2
:40154000BB71394B1B78FB7167E0FB7903F00103002B5CD0354ABB791B0113449B78DAB23249BB791B010B445B78DBB213407B717B7903F00103002B28D0BA792C49134626
:401580005B0013449B000B441B79DBB2DBB25BB2002B1BDA2549BB792448BA79120102441278D2B222F00102D2B21B010B441A702048B979BA791E4C13465B0013449B00A1
:4015C00023445B79DAB20B0103449A707B7903F00203002B15D0BA79154913465B0013449B000B441B79DBB2DBB25BB2002B08DBBA790F4913465B0013449B000B440022DA
:401600005A700A4ABB791B0113447A799A70BB790133BB71FB795B08FB71FB79002B94D10837BD4690BC70479F600040706000405883FF1FFC5F004080B500AF00F0A6FF6C
:4016400080BD00BF80B586B000AF0023FB75A74B1B78FB7100233B61A54B00221A80FB795BB2002B80F2EC80A04B5B78DBB20A2B00F2E48001A252F823F000BF951700009A
:401680003D1800003D1800003D1800003D1800003D180000A91600003D180000071800003D1800001D180000904BDB78DBB2012B0ED100F057FDB860BB685B688C4A536033
:4016C0008B4B12221A80FFF747FD0346FB7560E0864BDB78DBB2022B24D1844B9B78DBB2184600F015FDB860BB68002B51D0BB685B687F4A53607E4B5B6803331B78DBB2A6
:401700009BB21B029AB27A4B5B6802331B78DBB29BB213439AB2764B1A80FFF71DFD0346FB758CE0714BDB78DBB2032B2CD10023FB73704B3B6109E03B691B78BB71BB7968
:401740003A6913443B61FB7B0133FB73674B9B78DBB2FA7B9A4204D23B691B78DBB2002BEAD13B691B78DBB2002B12D03B691B78DBB29AB25E4B1A805D4A3B695360FFF780
:40178000EBFC0346FB755AE001F056FA0346FB7555E054E0FB7903F00303002B1FD0022B00D02FE0524B02221A80504B1B79DBB203F07F02504913465B0013449B000B4440
:4017C0009B78DAB24D4B1A704C4B00225A70484B4A4A5A60FFF7C0FC0346FB7512E0444B02221A80464B1B78DAB2444B1A70434B00225A703E4B414A5A60FFF7ADFC034621
:40180000FB7500BF1BE03A4B01221A80384B3D4A5A60FFF7A1FC0346FB7510E0344B01221A80324B1B79DBB21A46374B1344304A5360FFF791FC0346FB7500E000BF16E12A
:401840002A4B5B78DBB2013B0A2B00F20F8101A252F823F0591900006D1A0000E31900006D1A0000811800006D1A00006D1A00006D1A0000951800006D1A00001519000094
:401880001A4B9B78DAB2214B1A70FFF781FD0346FB75ECE0154B9B787B717B79002B06D07B79013BDBB2184600F032FCB8607B79002B02D0BB68002B02D17B79002B13D17B
:4018C000104B1B78DBB27A799A4208D00D4A7B7913700F4B01221A70012000F06FF9FFF757FD0346FB75C2E0C1E000BF006000403C83FF1F203200005883FF1FC481FF1F48
:401900004B83FF1F4D83FF1F3883FF1F3483FF1F4C83FF1F00F064FD0346002B1BD0564B1B793B71544B1B79DAB2544B1A703B79534AD35CDAB23B795249CB5CDBB29A42CE
:4019400004D0514B01221A7000F0C4FAFFF720FD0346FB758BE08AE0FB7903F00303012B22D0012B0DD3022B00D039E0424B9B78DBB2002B04D100F09BFC0346FB752FE0D2
:401980002EE03D4B9B78DBB2012B0CD13F4B1B78DBB223F00203DAB23C4B1A70FFF7F8FC0346FB751CE01BE0334B1B79DBB2012B15D8314B9B78DBB2DB43DBB22E4A12796D
:4019C000D2B211461046324A125CD2B21340DAB22F4B5A54FFF7DCFC0346FB75FFE700BF45E0FB7903F00303012B22D0012B0DD3022B00D039E0204B9B78DBB2002B04D138
:401A000000F0E8FB0346FB752FE02EE01A4B9B78DBB2012B0CD11D4B1B78DBB243F00203DAB21A4B1A70FFF7B3FC0346FB751CE01BE0114B1B79DBB2012B15D80E4B9B785D
:401A4000DBB2DB43DBB20C4A1279D2B2114610460F4A125CD2B21340DAB20D4B5A54FFF797FC0346FB75FFE700BF00E000BFFB7D18461837BD4680BD006000404983FF1F77
:401A8000C883FF1F3883FF1F4C83FF1F4B83FF1F5083FF1F90B482B000AF0123FB717AE0424AFB791B0113440C221A703F4AFB791B0113441F225A70FA793D4913465B00B8
:401AC00013449B000B445B79DBB2002B1AD0FA79374913465B0013449B000B441B79DBB2DBB25BB2002B06DA324AFB791B0113440C229A700CE02F4AFB791B011344082270
:401B00009A7005E02B4AFB791B01134480229A702648F979FA79264C13465B0013449B002344DB889BB2DAB20B0103449A711F48F979FA791E4C13465B0013449B0023447F
:401B4000DB889BB21B0A9BB2DAB20B010344DA711648F979FA79164C13465B0013449B002344DB889BB2DAB20B0103441A710F48F979FA790E4C13465B0013449B002344AA
:401B8000DB889BB21B0A9BB2DAB20B0103445A71FB790133FB71FB79082B81D9064BFF221A700837BD4690BC704700BF706000405883FF1FFC5F00400A60004080B588B089
:401BC00000AF0346FB7100237B830023FB7743E0FA7FA54913465B0013449B000B4400221A70FA7FA04913465B0013449B000B4400229A70FA7F9C4913465B0013449B0019
:401C00000B440022DA70FA7F974913465B0013449B000B44083300221A80FA7F924913465B0013449B000B44083300229A70FA7F8D4913465B0013449B000B4400225A70C4
:401C4000FA7F894913465B0013449B000B4400225A71FB7F0133FB77FB7F082BB8D9FB79002B10D000237B770AE07B7F7F4A0021D1547B7F7E4A0021D1547B7F01337B772A
:401C80007B7F012BF1D97B4B1B78DBB2002B00F01C81784B1B78DBB2013BDBB2184600F037FA38613B695B68FB60FB6807331B7803F04003002B08D06F4B1B78DBB243F09A
:401CC0000103DAB26C4B1A7007E06B4B1B78DBB223F00103DAB2684B1A703B6908333B613B691B78FB7701237B7790E03B695B687B610023BB7782E07A7F7B699B7803F0EF
:401D00007F039A4275D17A7F574913465B0013449B000B4408331B889AB27B699B889A420BD27A7F7B6998884F4913465B0013449B000B44083302461A807B691B781A4609
:401D40004A4B9B5CDAB27B695B789A4251D17A7F7B699878444913465B0013449B000B4402461A717A7F7B69D8783F4913465B0013449B000B4402461A707B69DB7803F0AE
:401D80000303FB727B699B78DBB25BB2002B18DA7A7FFB7A012B01D1072000E00D20324913465B0013449B000B4402465A717A7F2D4913465B0013449B000B4401225A708E
:401DC00017E07A7FFB7A012B01D1052000E00920254913465B0013449B000B4402465A717A7F214913465B0013449B000B4400225A707B6908337B61BB7F0133BB77BA7FC4
:401E0000FB7F9A42FFF478AF7B7F01337B777B7F082B7FF66BAF3B695B687B6100237B7714E07B699B7803F07F027B6918780E4913465B0013449B000B44083302469A7052
:401E40007B6908337B617B7F01337B777A7FFB7F9A42E6D300F098F90246084B1A6000237B830123FB772BE05883FF1F3883FF1FC883FF1F4D83FF1F4B83FF1F5483FF1FDD
:401E8000FA7F134913465B0013449B000B447A8BDA80FA7F0E4913465B0013449B000B4408331B889AB27B8B13447B837B8B03F001039AB27B8B13447B83FB7F0133FB77EB
:401EC000FB7F082BDCD9FFF7E5FD2037BD4680BD5883FF1F90B585B000AF874B1B78DBB2002B00F00681844B1B78DBB2013BDBB2184600F00DF978607B6808337B607B689B
:401F00001B78FB707B685B68BB607C4B1B78BB700023FB73E8E0BB681B78BA789A4240F0DD80BB78764AD35CDAB2BB685B789A4240F0D480BB689B7803F07F037B70BB68F6
:401F4000DB7803F003033B707A786E4913465B0013449B000B440022DA707A78BB689878684913465B0013449B000B4402461A717A78BB68D878634913465B0013449B000B
:401F80000B4402461A707A78BB6898885D4913465B0013449B000B44083302461A80BB689B78DBB25BB2002B18DA7A783B78012B01D1072000E00D20524913465B001344A9
:401FC0009B000B4402465A717A784E4913465B0013449B000B4401225A7017E07A783B78012B01D1052000E00920464913465B0013449B000B4402465A717A784149134645
:402000005B0013449B000B4400225A703E4A7B781B01134401229A703B4879787A78394C13465B0013449B00234408331B889BB21B0A9BB2DAB20B0103441A703248797894
:402040007A78304C13465B0013449B00234408331B889BB2DAB20B0103445A702B4879787A78284C13465B0013449B002344DB889BB2DAB20B0103449A71244879787A7851
:40208000204C13465B0013449B002344DB889BB21B0A9BB2DAB20B010344DA711B4879787A78184C13465B0013449B002344DB889BB2DAB20B0103441A71144879787A784B
:4020C000104C13465B0013449B002344DB889BB21B0A9BB2DAB20B0103445A71BB680833BB60FB7B0133FB73FA7BFB789A42FFF412AF1437BD4690BD4D83FF1F4983FF1F2F
:402100003883FF1F5883FF1FFC5F00407060004080B485B000AF0346FB71104B1B78DBB20F4ADB0013445B68FB60FB681033FB60FB681B78FA799A4202D30023FB6005E0B3
:40214000FB79DB00FA6813445B68FB60FB6818461437BD465DF8047B704700BF4883FF1FA834000080B400AF054B1B78DBB2054ADB0013445B681846BD465DF8047B704798
:402180004883FF1FA834000080B584B000AF104B1B78DBB2013BDBB21846FFF7B9FFB860BB68002B0DD0BB685B681B79FB71FB790233DB00BA681344BB60BB685B68FB6070
:4021C00001E00023FB60FB6818461037BD4680BD4D83FF1F80B582B000AF0023FB71314B1B79DBB203F07F03BB71BB79002B53D0BB79082B50D8BA79B9792B480B465B00D2
:402200000B449B0003449B78DBB243F00103D8B2254913465B0013449B000B4402469A70BA79214913465B0013449B000B440022DA70BA79B9791C480B465B000B449B00FA
:4022400003445B78DBB243F00203D8B2164913465B0013449B000B4402465A70BA79124913465B0013449B000B441B79DBB2DBB25BB2002B06DA0D4ABB791B0113448D2299
:402280009A7005E0094ABB791B01134489229A70FFF77EF80346FB71FB7918460837BD4680BD00BF006000405883FF1FFC5F004080B582B000AF0023FB71464B1B79DBB2C4
:4022C00003F07F03BB71BB79002B7DD0BB79082B7AD8BA79B97940480B465B000B449B0003449B78DBB223F00103D8B23A4913465B0013449B000B4402469A70BA79364951
:4023000013465B0013449B000B440022DA70334ABB791B0113447F221A70BA79B9792E480B465B000B449B0003445B78DBB223F00203D8B2284913465B0013449B000B44CD
:4023400002465A70BA79244913465B0013449B000B441B79DBB2DBB25BB2002B18DABA791D4913465B0013449B000B445B78DBB2012B06D1194ABB791B0113440C229A70AB
:402380001EE0164ABB791B0113440D229A7017E0BA79114913465B0013449B000B445B78DBB2012B06D10D4ABB791B01134408229A7005E0094ABB791B01134409229A70BD
:4023C000FEF7E6FF0346FB71FB7918460837BD4680BD00BF006000405883FF1FFC5F004080B584B000AF0023FB73154B1B79BB73144B1B78DBB2013BDBB21846FFF788FE1D
:40240000B860BB685B681B79FB71BA7BFB799A4202D9BB7B022B0ED8BB7BBA7B0A498A5CD1B20A4AD154BB7B054A9278D1B2064AD1540123FB73FB7B18461037BD4680BDE1
:40244000006000404D83FF1F3883FF1FC883FF1F80B483B000AF0023FB710A4B1B78DBB2DBB25BB2002B06DA064B5B78DBB2012B00D000E000BFFB7918460C37BD465DF814
:40248000047B70470060004090B585B002AF0446084611461A462346FB710346BB710B46BB8013467B80114B01221A700F4B1878F979BA790023009300230193012300F089
:4024C000A7F90A4B1978BA887B88084611461A4600F042F9054B1B781846022100F00CF9024B1B7818460C37BD4690BD0C81FF1F80B582B000AF786000F03CF8786800F02A
:4025000009F8072000F018F800F028F80837BD4680BD00BF80B485B000AF7860054B1B68FB60FB6840337A681A601437BD465DF8047B704708ED00E080B483B000AF0346C8
:40254000FB71054AFB795B01DBB213700C37BD465DF8047B704700BF00E400E080B400AF034B01221A60BD465DF8047B704700BF00E100E080B400AF034B01221A60BD46BF
:402580005DF8047B704700BF80E100E080B400AF054B1B78DBB203F040039B09DBB21846BD465DF8047B70478F45004080B483B000AF134B7F221A70124B80221A707F230C
:4025C000FB710CE0FB79DB0003F1804303F5F043FA79013AD2B21A70FB79013BFB71FB79002BEFD1FB79DB0003F1804303F5F04300221A700C37BD465DF8047B704700BFAE
:402600001181FF1F1081FF1F80B485B000AF03460A46FB711346BB710123FB60FB79172B2FD8BB79002B0ED0FB791A01184B1344FA791101164A0A441278D2B242F0200242
:40264000D2B21A700DE0FB791A01114B1344FA7911010F4A0A441278D2B222F02002D2B21A70FB791A010A4B1344FA791101084A0A441278D2B242F00102D2B21A700023CD
:40268000FB60FB6818461437BD465DF8047B70471070004080B485B000AF0346FB710123FB60FB79172B1DD8FB791A01114B1344FA7911010F4A0A441278D2B222F00102DD
:4026C000D2B21A70FB791A010A4B1344FA791101084A0A441278D2B222F02002D2B21A700023FB60FB6818461437BD465DF8047B704700BF1070004080B485B000AF034624
:402700000A46FB711346BB710123FB60FB79172B18D8FB791A010F4B13441B78DBB223F00E03FB72FB791A010A4B1344BA7902F00702D2B25200D1B2FA7A0A43D2B21A70B1
:402740000023FB60FB6818461437BD465DF8047B704700BF1070004080B485B000AF0346FB710B46BB8013467B800123FB60BB8841F6FF72934202D14FF40053BB807B882F
:4027800041F6FF72934202D14FF400537B80FB79172B17D8FB79DB0003F1804303F5EC430433BB60BB68BA881A80FB79DB0003F1804303F5EC430633BB60BB687A881A80D5
:4027C0000023FB60FB6818461437BD465DF8047B704700BF80B485B000AF03460A46FB711346BB710123FB60FB79172B07D8FB791A01064B1344BA795A720023FB60FB6835
:4028000018461437BD465DF8047B70471070004090B484B000AF0446084611461A462346FB710346BB710B467B7113463B710123FB60FB79172B34D8FB79DB0003F1804358
:4028400003F5EC43BA7902F07F02D1B27A79D201D2B20A43D2B21A70FB79DB0003F1804303F5EC433A7E1201D1B23A7902F00F02D2B20A43D2B25A70FB79DB0003F180430D
:4028800003F5EC433A7F02F00F02D2B29A70FB79DB0003F1804303F5EC430022DA700023FB60FB6818461037BD4690BC704700BF80B582B000AFFF23FB7100F0B5F9034638
:4028C000BB71104B1B78182B12D90F4B1B78FB710C4B1B78013BDAB20A4B1A70FB79DB0003F1804303F5F0431B78DAB2064B1A70BB79184600F09CF9FB7918460837BD4650
:4029000080BD00BF1081FF1F1181FF1F90B484B000AF0446084611461A462346FB710346BB800B46BB711346FB700123FB60FB795BB2002B23DBBB8823F47F6323F00F03A2
:402940009BB2002B1BD1FB79DB0003F1804303F5F043BB60BB68BA881A80FB79DB0003F1804303F5F043BA799A70FB79DB0003F1804303F5F043FA78DA700023FB60FB686C
:4029800018461037BD4690BC704700BF80B485B000AF0346FB710B46BB8013467B800123FB60FB795BB2002B17DBFB79DB0003F1804303F5F0430433BB60BB68BA881A8061
:4029C000FB79DB0003F1804303F5F0430633BB60BB687A881A800023FB60FB6818461437BD465DF8047B704780B483B000AF0346FB7101BE0C37BD465DF8047B704700BF61
:402A000080B582B000AF0346FB80FB88044A127802FB03F3184600F0FFF80837BD4680BD2081FF1F80B584B000AF03463960FB710F4B1B68FB60FB791F2B02D90020FFF79E
:402A4000D3FFFB7903F01F0310339B00FA6813441B68BB60FB7903F01F0310339B00FA6813443A681A60BB6818461037BD4680BD08ED00E080B582B000AF03460A46FB7192
:402A80001346BB71BB79072B02D90020FFF7ACFFFB791F2B02D90020FFF7A6FFFB7903F01F0303F1604303F56443BA795201D2B21A700837BD4680BD90B585B002AF0446F4
:402AC000084611461A462346FB710346BB710B46BB8013467B80114B05221A700F4B1878F979BA7900230093002301930023FFF78FFE0A4B1978BA887B88084611461A46C8
:402B0000FFF72AFE054B1B7818460221FFF7F4FD024B1B7818460C37BD4690BD2881FF1F90B585B002AF0446084611461A462346FB710346BB710B46BB8013467B80114B94
:402B400000221A700F4B1878F979BA7900230093002301930023FFF75BFE0A4B1978BA887B88084611461A46FFF7F6FD054B1B7818460221FFF7C0FD024B1B7818460C378A
:402B8000BD4690BD2981FF1F80B582B000AF00F04BF80346FB710B4A0A4B1B78DBB243F02003DBB21370FB79184600F041F8064A054B1B78DBB243F00403DBB2137008378B
:402BC000BD4680BD976500407665004080B400AF084A084B1B78DBB223F00703DBB21370044B044A1278D2B21A70BD465DF8047B704700BF8665004080B500AF054B1B78F5
:402C0000002B04D1FFF7E2FF024B01221A70FFF7BBFF80BDC881FF1F0230800803D000BF01380046FCD17047EFF3108072B6704780F31088704700BF80B582B000AF1A4BD3
:402C40001B78DBB203F00303012B02D0022B04D012E0154B1B79BB7111E0134B1B79DBB203F07F02114913465B0013449B000B4408339B78BB7102E00023BB7100BF0C4B36
:402C80001A68BB7913441B78012B04D100F012F80346FB7102E00023FB7100BFFB7918460837BD4680BD00BF006000405883FF1F5483FF1F80B582B000AF0023FB71734B93
:402CC0001B78DBB203F00303BB71704BDB787B716E4B1B79DBB203F07F033B716B4B1B78DBB2DBB25BB2002B80F28580BB79022B1AD1664B5B78DBB2812B00D013E07B79C8
:402D0000012B0FD1624B03221A803A7913465B001344604A13445E4A5360FEF71DFA0346FB71FFE700BFACE0BB79012B40F0A980564B5B78DBB2832B36D0832B04DC812B67
:402D400007D0822B21D055E0842B3CD0FF2B49D050E07B79012B0AD14D4B01221A804C4B4D4A5A60FEF7F8F90346FB710CE07B79022B09D1464B02221A80454B474A5A6097
:402D8000FEF7EAF90346FB7134E07B79022B0AD13F4B02221A803E4B414A5A60FEF7DCF90346FB7126E025E07B79022B0AD1384B02221A80364B3B4A5A60FEF7CDF90346D5
:402DC000FB7117E016E07B79022B0AD1304B02221A802F4B344A5A60FEF7BEF90346FB7108E007E02A4B00221A80FEF735FA0346FB7100BF45E0BB79022B1DD1234B5B78E5
:402E0000DBB2012B00D016E07B79012B12D1204B03221A803A7913465B0013441D4A13441B4A5360214A3B791370FEF715FA0346FB71FFE700BF24E0BB79012B21D1134B9E
:402E40005B78DBB2012B00D01BE07B79012B0AD10F4B01221A800E4B0F4A5A60FEF7FCF90346FB710CE07B79022B09D1084B02221A80074B094A5A60FEF7EEF90346FB71F6
:402E800000BFFB7918460837BD4680BD006000403C83FF1FD083FF1FEC83FF1FCC83FF1F2C81FF1F3081FF1F3481FF1FEB83FF1F014B1868704700BF9881FF1F0E4B70B52A
:402EC0001E460E4C0025E41AA410A54204D056F8253098470135F8E700F0ECFA084B094C1E46E41AA4100025A54204D056F8253098470135F8E770BDC0340000C0340000CB
:402F0000C0340000C834000010B5431E0A44914204D011F8014B03F8014FF8E710BD03460244934202D003F8011BFAE7704700000000000020510040500000000140001003
:402F400000140140000800400140000A004C0140000200500140200001450040035200400165004003150140551601403717014002190140094001400441014007420140DE
:402F800006430140044701400E48014006490140024C014002500140025101407E02600C61057C40877F8B809B80E620020304120A120C12120816011A121E0420042208BC
:402FC0002820301032033420360C3E0140234104450C46EB480D49FF4AFF4BFF50045205540158045A045B045F0162C064406501668068306A406B106C106E406FA880805C
:40300000810182088320848085028610872088FF89048B208E7F9280948095279601974099109A7F9D279F40A080A108A204A480A527A602A740A880A910AA20AC80AE40E5
:40304000B0FFB110B30FB568B708D602D724D804D904DB04DF010050010504020604072A0A540E220F88115013051711184019011C101D101EA22108224023AA29012A243F
:40308000311832403915472A4F08577058085A045E805F106008633069556B016C016E446F1072307305820183209F01B301C0FFC2FEC45FCA07CC0ECE07D0E0D630D80462
:4030C000EA02EE22EA02EE02144030403301364039083F08C420CC70CEC095089F01A640A7045108560895089F01A640A704D46095089E089F01A508A640A7040B4016103B
:40310000C208C404210425408208830495089E08A704AE40AF01B108C860E6A0EA40EE4070087D808808A140DC80DE20AE10AF4010011A01002B10180001000000000000AA
:4031400000000100000F0F000F0000004000000000000000C0000000000B0B00000000001201000200000008B404012000000B0A000100000902AC00020100809609040022
:4031800000010101000C09240100012600010108240602010103000C240201010100020300000D09240303010300020E0905860302001E000009040100000102000C090401
:4031C0000101010102000F072401010101001124020102021003007D0044AC0080BB000905010DC00001000007250101010100090401020101020010072401010101001123
:4032000024020102031803007D0044AC0080BB000905010D20010100000725010101010004030904440343007900700072006500730073002000530065006D0069006300DC
:403240006F006E0064007500630074006F007200200043006F00720070006F0072006100740069006F006E001E03550053004200200041007500640069006F0020004400AF
:4032800065006D006F00220343006F006E00740072006F006C00200049006E006500720066006100630065002803530074007200650061006D0069006E006700200049004C
:4032C0006E0074006500720066006100630065002C0343007900700072006500730073002000530065006D00690063006F006E0064007500630074006F0072002403430085
:403300007900700072006500730073002000550053004200200041007500640069006F002803430079007000720065007300730041007500640069006F0043006F006E00A5
:40334000740072006F006C001C035A00650072006F00420061006E006400770069006400740068002E0341007500640069006F00530074007200650061006D0069006E00D2
:403380006700200053007000650061006B00650072001003460072006500650044005300500016035400550020004400720065007300640065006E002C034300790070003D
:4033C000720065007300730020004400690067006900740061006C00200041007500640069006F001C035500530042002000530074007200650061006D0069006E0067004D
:40340000100353007000650061006B00650072001C0341006300740069007600650020003100360020006200690074001C034100630074006900760065002000320034004C
:4034400020006200690074000000000000008603020001000101010DC00001000102010D20010100010100000100000074310000030000004C340000000000000000000032
:4034800000000000000000000000000064340000010000006031000000000000000000000100000068340000010000009034000043000000F8B500BFF8BC08BC9E467047BE
:4034C0004D000000A1030000F8B500BFF8BC08BC9E46704729000000E83400000881FF1F980000005002000000000000FF000000807F0000270000000090D00300FA000004
:40350000400000000000007DFFFF000001800000FF7F0000010000000000000000000000000000000000000000000000000000000000000000000000B034000000000000EC
:4035400000000000000000000000000000000000000000000000000000000000000000000000000000000000000000000000000000000000000000003881FF1F0000000074
:40358000000000000000000000000000000000000000000000000000000000000000000000000000000000000000000000000000000000000000000000000000000000000B
:4035C00000000000000000000000000000000000000000000000000000000000000000000000000000000000000000000000000000000000000000000000000000000000CB
:40360000000000000000000000000000000000000000000000000000000000000000000000000000000000000000000000000000000000000000000000000000000000008A
:40364000000000000000000000000000000000000000000000000000000000000000000000000000000000000000000000000000000000000000000000000000000000004A
:0200000480007A
:0200000490006A
:0400000000004005B7
:0200000490105A
:04000000BC90ACAF55
:0200000490303A
:020000005D376A
:0200000490402A
:4000000000000000000000000000000000000000000000000000000000000000000000000000000000000000000000000000000000000000000000000000000000000000C0
:400040000000000000000000000000000000000000000000000000000000000000000000000000000000000000000000000000000000000000000000000000000000000080
:400080000000000000000000000000000000000000000000000000000000000000000000000000000000000000000000000000000000000000000000000000000000000040
:4000C0000000000000000000000000000000000000000000000000000000000000000000000000000000000000000000000000000000000000000000000000000000000000
:0200000490501A
:0C00000000012E16106900012E296DA0D1
:00000001FF