:400000000080002011000000650200006502000080B500AF024A034B1B68136000F026F9BC760040FA460040080002230000087608000323000010760800042300002876A0
:4000400008000523000030760500062300002070050007230000307005000823000060700500FE230000707050000A220000205110000B220000C0511000FE220000F0516B
:4000800000020D220000000080010E2200000004000A0F2200000006000810220000001480001122000000420007122200000043000213220000004C1000FE220000105045
:4000C000070015230000005207001623000008522000FE23000070648000182300000002800019230000800210001A230000005080001B230000800580001C230000000323
:4001000080001D230000800380001E230000804280001F2300000041800020230000804180002123000000408000FE23000080400100000001000000010000000048014081
:4001400001000000004800400100000000200140010000000020004010B5054C237833B9044B13B10448AFF300800123237010BD3081FF1F00000000880D0000084B10B515
:400180001BB108480849AFF300800848036803B910BD074B002BFBD0BDE81040184700BF00000000880D00003481FF1F0881FF1F0000000080B582B000AF6423FB7100F009
:4001C00017FB00F011F800BF064B1B78DBB203F00203002BF8D1012000F08AFD00F018FBFEE700BF6264004080B500AF0120012141F6FF724FF4804300F02CFB03461A46FE
:40020000154B1A7000F0D8FC03461A46134B1A70124B1A78114B1B78104604211A46012300F0F8FC0D4B1A780D4B9BB21046194646F2424200F02EFD074B1A78074B1B78DA
:400240001046194600F04AFC034B1B781846012100F090FB80BD00BF4C81FF1F5081FF1F0C81FF1F80B400AFFEE700BF80B586B000AF224B7B61224B3B61204B7B6135E0E7
:400280003B691B68FB603B695B68BB603B699B683B6000237B600CE0FB681A68BB681A60BB680433BB60FB680433FB607B6804337B607A683B689A42EED13B69DB683B608B
:4002C00000237B6008E0BB6800221A60BB680433BB607B6804337B607A683B689A42F2D13B6910333B617B69013B7B617B69002BC6D100F00FFDFFF75DFFFEE70100000072
:40030000340E000080B582B000AF184B184A1A60184A184B1B6843F40073136000237B600FE07B68032B04D8134A7B6852F8233000E0124B12497A6841F822307B680133EE
:400340007B607B682F2BECD90E4B1B78DAB20E4B1A700E4B0A4A1A6000F0A0F900F0DCFA0B4B00221A600837BD4680BD0CED00E00004FA0514ED00E000000000650200003A
:400380000080FF1FBC7600400481FF1F08ED00E00081FF1F80B582B000AF78603960786800213A6800F0E7FC0837BD4680BD00BF80B584B000AFF860B9607A60F868B968F7
:4003C0007A6800F0CDFC1037BD4680BD80B483B000AF0346FB71FEE780B582B000AF454B00221A60444B10221A70444B01221A70434B00221A70434B4FF484721A80424B3A
:4004000001221A70414B03221A70414B414A92B21A80414B47F608021A80404B00221A803F4B4FF480421A803E4B09221A703E4B0C221A703D4B14221A703D4B17221A70F0
:40044000BFF35F8F3B4B01221A70BFF35F8F00BF2C4B1B889BB2002BFAD100237B600DE07B68DA00344B13441946344A7B6852F823309BB20B807B6801337B607B68202B1A
:40048000EED9BFF35F8F2B4B01221A70BFF35F8F00BF2B4B1B78DBB203F00103002BF8D100BF284B1B78DBB203F00103002BF8D100BF254B1B78DBB203F00103002BF8D15B
:4004C00000BF224B1B78DBB203F00103002BF8D100BF1F4B1B78DBB203F00103002BF8D11C484FF090410622FFF762FF0837BD4680BD00BF5881FF1F0076004010700040F3
:4005000019700040007800400278004003780040047800402800000006780040047600400676004029700040397000406970004079700040147000400C7800408C0D000088
:4005400018700040287000403870004068700040787000401051014080B582B000AF304B03221A802F4B18221A702F4B02221A704FF0402308221A702C4B03221A702C4B68
:400580002C4A1278D2B21A702B4B08221A802B4B41F251221A800023FB7019237B6014E0FB785B00DAB2264B1B78DBB203F00103DBB21343DBB203F00303FB704FF4F0704B
:4005C00000F07EF97B68013B7B607B68002B02D0FB78032BE4D17B68002B02D10320FFF7F5FE184B4FF480721A80164B07221A70154B00221A70154B48221A70114B002253
:400600001A70134B02221A70124A124B1B78DBB243F00103DBB213700837BD4680BD00BF80400040824000400043004000420040A146004008010049224200402042004000
:400640002542004004400040064000400840004001400040A243004080B483B000AF0B4B1B78FB710A4AFB7903F00703DBB21370084AFB791B09DBB21370074B44221A701F
:400680000C37BD465DF8047B704700BFCF0100496E5800406F5800407658004080B500AF72B6294A284B1B78DBB243F00403DBB21370FFF791FE25480421FFF76BFE244A36
:4006C000234B1B78DBB243F00203DBB21370214A204B1B78DBB243F00203DBB213701E4A1D4B1B78DBB243F04003DBB213701B4A1A4B1B78DBB243F01003DBB213701848D0
:4007000018490822FFF754FE174818490A22FFF74FFE174A164B1B78DBB243F00803DBB21370144B00221A70FFF716FF114B80221A70114B01221A70FFF78EFF0F480649B7
:400740000E22FFF735FE80BDE8460040007600400350014013500140A0430040C243004002510040480500481051004050050048224300400048004004000840B04300400D
:4007800080B582B000AF00F0BAF80346FB710B4A0A4B1B78DBB243F02003DBB21370FB79184600F0B0F8064A054B1B78DBB243F00403DBB213700837BD4680BD9364004072
:4007C0007264004080B400AF084A084B1B78DBB223F00703DBB21370044B044A1278D2B21A70BD465DF8047B704700BF8264004080B500AF054B1B78002B04D1FFF7E2FFC8
:40080000024B01221A70FFF7BBFF80BD6081FF1F80B582B000AF00F072F80346FB710B4A0A4B1B78DBB243F01003DBB21370FB79184600F068F8064A054B1B78DBB243F078
:400840000103DBB213700837BD4680BD926400407264004090B585B002AF0446084611461A462346FB710346BB710B46BB8013467B80114B00221A700F4B1878F979BA795E
:400880000023009300230193002300F045F90A4B1978BA887B88084611461A4600F0E0F8054B1B781846022100F0AAF8024B1B7818460C37BD4690BD1081FF1F000000000C
:4008C000142816D902B4012114381049097811F0C001890904B40E4A515C04BC00BF00BF00BF8841FDD500BF00BF02BC704700BF00BF70F10400FCD570470B050709EFF3C6
:40090000108072B6704780F31088704700480040FA080000AFF3008080B483B000AF134B7F221A70124B80221A707F23FB710CE0FB79DB0003F1804303F5F043FA79013AD9
:40094000D2B21A70FB79013BFB71FB79002BEFD1FB79DB0003F1804303F5F04300221A700C37BD465DF8047B704700BF1581FF1F1481FF1F80B485B000AF03460A46FB71FD
:400980001346BB710123FB60FB79172B2FD8BB79002B0ED0FB791A01184B1344FA791101164A0A441278D2B242F02002D2B21A700DE0FB791A01114B1344FA7911010F4A40
:4009C0000A441278D2B222F02002D2B21A70FB791A010A4B1344FA791101084A0A441278D2B242F00102D2B21A700023FB60FB6818461437BD465DF8047B704710700040D0
:400A000080B485B000AF03460A46FB711346BB710123FB60FB79172B18D8FB791A010F4B13441B78DBB223F00E03FB72FB791A010A4B1344BA7902F00702D2B25200D1B23C
:400A4000FA7A0A43D2B21A700023FB60FB6818461437BD465DF8047B704700BF1070004080B485B000AF0346FB710B46BB8013467B800123FB60BB8841F6FF72934202D151
:400A80004FF40053BB807B8841F6FF72934202D14FF400537B80FB79172B17D8FB79DB0003F1804303F5EC430433BB60BB68BA881A80FB79DB0003F1804303F5EC430633F8
:400AC000BB60BB687A881A800023FB60FB6818461437BD465DF8047B704700BF80B485B000AF03460A46FB711346BB710123FB60FB79172B07D8FB791A01064B1344BA7925
:400B00005A720023FB60FB6818461437BD465DF8047B70471070004090B484B000AF0446084611461A462346FB710346BB710B467B7113463B710123FB60FB79172B34D8CE
:400B4000FB79DB0003F1804303F5EC43BA7902F07F02D1B27A79D201D2B20A43D2B21A70FB79DB0003F1804303F5EC433A7E1201D1B23A7902F00F02D2B20A43D2B25A702A
:400B8000FB79DB0003F1804303F5EC433A7F02F00F02D2B29A70FB79DB0003F1804303F5EC430022DA700023FB60FB6818461037BD4690BC704700BF80B582B000AFFF23A2
:400BC000FB71FFF79CFE0346BB71104B1B78182B12D90F4B1B78FB710C4B1B78013BDAB20A4B1A70FB79DB0003F1804303F5F0431B78DAB2064B1A70BB791846FFF783FE4A
:400C0000FB7918460837BD4680BD00BF1481FF1F1581FF1F90B484B000AF0446084611461A462346FB710346BB800B46BB711346FB700123FB60FB795BB2002B23DBBB88C1
:400C400023F47F6323F00F039BB2002B1BD1FB79DB0003F1804303F5F043BB60BB68BA881A80FB79DB0003F1804303F5F043BA799A70FB79DB0003F1804303F5F043FA7896
:400C8000DA700023FB60FB6818461037BD4690BC704700BF80B485B000AF0346FB710B46BB8013467B800123FB60FB795BB2002B17DBFB79DB0003F1804303F5F04304336D
:400CC000BB60BB68BA881A80FB79DB0003F1804303F5F0430633BB60BB687A881A800023FB60FB6818461437BD465DF8047B704780B582B000AF0346FB80FB88044A127849
:400D000002FB03F31846FFF7DBFD0837BD4680BD2481FF1F0E4B70B51E460E4C0025E41AA410A54204D056F8253098470135F8E700F06EF8084B094C1E46E41AA4100025B4
:400D4000A54204D056F8253098470135F8E770BD1C0E00001C0E00001C0E0000240E000010B5431E0A44914204D011F8014B03F8014FF8E710BD03460244934202D003F8AC
:400D8000011BFAE7704700000000000050010000480100004001000038010000300100003001000030010000300100005881FF1F5881FF1F5881FF1F5881FF1F5881FF1FD4
:400DC0005881FF1F5881FF1F5881FF1F5881FF1F5881FF1F5881FF1F08000048100000481801004818000048980000483801004848010048C801004848020048C802004819
:400E000048030048C803004848040048C8040048F8B500BFF8BC08BC9E4670477D01000005030000F8B500BFF8BC08BC9E46704759010000480E00000881FF1F2800000061
:400E40003800000000000000000000000099CCFFFF000000807F00000100000000366E01C05D0000180000000000E02E0000000000000000000000000000000000000000EF
:400E80000000000000000000000000000000000000000000000000000000000000000000000000000000000000000000000000000000000000000000000000000000000032
:400EC00000000000000000000000000000000000000000000000000000000000000000000000000000000000000000000000000000000000000000000000000000000000F2
:400F000000000000000000000000000000000000000000000000000000000000000000000000000000000000000000000000000000000000000000000000000000000000B1
:400F40000000000000000000000000000000000000000000000000000000000000000000000000000000000000000000000000000000000000000000000000000000000071
:020000040003F7
:0200000480007A
:40000000010000000000000005090000000000000000000080000000000003001000000000000400040008000000080000002200000022000000010022000000000000009F
:40004000100000002200000020000C0010000300000000000000010043050000000CEEB02DFFFFFF00000000040005000100000004000404000000010000C000400180005A
:4000800030004010100040A80000000000000000000000000000000080004011800010110000001100017F24000080008001018480080200FF010044800204F000007F1147
:4000C0008000200080000800FF020007000800F000800000000000000000000000000000000000000000000000000000000002240404000400000001000000000000000025
:40010000000000000000000000000000000000000000000000000000000000000000000000000000000000000000007F00000000000000000000000001000000000000003F
:40014000010000000000000000000000000000000000000000000000000000000000000000000000000000000000000000000000000000000000000004000000000000007A
:40018000000000000000000000000000000000000000000000000000000000000000000000000000000000000000000000000000000020000000000000000000000000001F
:4001C00000000000000000004204000016000001002051000208010800180081008200204001000018008100044940420000000000010800000000000008401000000000D9
:4002000000150040000000000000000000080002000000000000004800000000020000500000000008008410080000300000000001150081010844100020182100000000A4
:40024000000000000000000000000040010000000000000010000000000000000000000000000000000000000000000000000000000000000000000000000000000000002D
:400280000000000000000000FD00FF00DF000000000003000E000F00C00010000000300004000000000000000000100000000000000000000000000000000000000000002F
:4002C00000000000000000000000000000000000000000000000000000000000000000000000000000000000000000000000000000000000000000001000000000000000EE
:4003000000000000000000000000000000000000000000000000000000000000000000000000000000000000000000000000000000000000000000000000000000000000BD
:40034000000000000000000000000000000000000000000000000000000000000000000000000000000000000000000000000000000000000000000000000000000000007D
:40038000000000000000000000000000000000000000000000000000000000000000001110000000000000000000000000000000000000000000000000000000000000001C
:4003C000000000000000000000004000000000010000000000000010000000000000400000000000000000000000000000000000000000000000000000000000000000006C
:4004000000000000000000000000000000000000000000000000000000000000C00020000000000000000000000020000000100000000000000000000000000000000000AC
:40044000000000000000000000000000000000000000000000000000000000000000000000000000000000000000000000000000000000000000000000000000000000007C
:4004800000000000000040000000000000000000000000000000000000000000000000000000000000000000000000000000000000000000000000000000000000000000FC
:4004C00000000000000000000000000000000000000000000000000000000000000000000000000000000000000000000000000000000000000000000000000000000000FC
:40050000000000000000000000000000000000000000000000002000000000000000000000000000000000000000000000000000000000000000000000000000000000009B
:400540000000000000000000000D0D000D00000080000080000000000000000000000000000000000000000000000000000000000000000000000000000000000000000054
:40058000000000000000000000000000000000000000000000000000000000000000000000000000000000000000000000000000000000000000000000000000000000003B
:4005C00000000000000000000000000000000000000000000000000000000000000000000000000000000000000000000000000000000000000000000000000000000000FB
:4006000000000000000000000000000000000000000000000000000000000000000000000000000000000000000000000000000000000000000000000000000000000000BA
:40064000000000000000000000000000000000000000000000000000000000000000000000000000000000000000000000000000000000000000000000000000000000007A
:0200000490006A
:0400000000004005B7
:0200000490105A
:04000000BC90ACAF55
:0200000490303A
:02000000297B5A
:0200000490402A
:4000000000000000000000000000000000000000000000000000000000000000000000000000000000000000000000000000000000000000000000000000000000000000C0
:400040000000000000000000000000000000000000000000000000000000000000000000000000000000000000000000000000000000000000000000000000000000000080
:400080000000000000000000000000000000000000000000000000000000000000000000000000000000000000000000000000000000000000000000000000000000000040
:4000C0000000000000000000000000000000000000000000000000000000000000000000000000000000000000000000000000000000000000000000000000000000000000
:0200000490501A
:0C00000000012E12306900012E1759E497
:00000001FF