:400000000080002011000000090400000904000080B500AF024A034B1B68136000F0F8F9BC760040FA46004008000223000008760800032300001076080004230000287682
:4000400008000523000030760500062300002070050007230000307005000823000060700500FE230000707040000A220000305110000B220000C0511000FE220000F0516B
:4000800080010D2200000004000A0E220000000600080F220000001480001022000000420007112200000043000212220000004C1000FE22000010500700142300000052EC
:4000C00007001523000008522000FE230000706480001723000000008000182300008000800019230000000280001A230000800210001B230000005080001C23000080057E
:4001000080001D230000000380001E230000800380001F23000000018000202300008001800021230000804280002223000000418000232300008041800024230000004097
:400140008000FE23000080400100000001000000010000000048014001000000004800400100000000200140010000000020004010B5054C237833B9044B13B10448AFF3A8
:4001800000800123237010BD3081FF1F00000000DC140000084B10B51BB108480849AFF300800848036803B910BD074B002BFBD0BDE81040184700BF00000000DC14000046
:4001C0003481FF1F0881FF1F0000000080B582B000AF6423FB7100F0D1FC204800F014FD0120002100F0DAFC1D4800F00DFD00F0FBFB00F03DF800F079F80120002100F051
:40020000CDFC00F023FC00BF164B1B78DBB203F00203002BF8D1012001F014F900F0F4FB012001F0EDF800F09FF8FB79002B03D0FB79013BFB7110E06423FB7100F0B6F82F
:40024000094B1B78002B08D0084B1B780133DAB2064B1A70044B00221A70E1E7E0140000E4140000616400405C81FF1F0C81FF1F80B500AF012001214FF4804241F6FF73E4
:4002800000F006FC03461A46154B1A7001F01CF803461A46134B1A70124B1A78114B1B78104604211A46022301F03CF80D4B1A780D4B9BB2104646F242411A4601F072F8C5
:4002C000074B1A78074B1B781046194600F08EFF034B1B781846012100F0D4FE80BD00BF4C81FF1F5081FF1F5881FF1F80B500AF0120012141F6FF724FF4804300F024FE2C
:4003000003461A46154B1A7000F0DEFF03461A46134B1A70124B1A78114B1B78104604211A46012300F0FEFF0D4B1A780D4B9BB21046194646F2414201F034F8074B1A7802
:40034000074B1B781046194600F050FF034B1B781846012100F096FE80BD00BF5181FF1F5481FF1F0C81FF1F80B500AF00F020FE0346002B14D10B4B1B78002B06D0094BAC
:400380001B78013BDAB2074B1A7009E0054B1B78002B05D1044B01221A70024B1E221A7080BD00BF1081FF1F5C81FF1F80B582B000AF0423BB710023FB711BE0BB79002039
:4003C000194600F0EBFBFB790D4AD35C184600F09FFDBB790120194600F0E0FBFB79094AD35C184600F094FDBB790333BB71FB790133FB71FB79032BE0D90837BD4680BD0C
:400400000C81FF1F5881FF1F80B400AFFEE700BF80B586B000AF224B7B61224B3B61204B7B6135E03B691B68FB603B695B68BB603B699B683B6000237B600CE0FB681A68B6
:40044000BB681A60BB680433BB60FB680433FB607B6804337B607A683B689A42EED13B69DB683B6000237B6008E0BB6800221A60BB680433BB607B6804337B607A683B684A
:400480009A42F2D13B6910333B617B69013B7B617B69002BC6D100F0E7FFFFF797FEFEE701000000AC15000080B582B000AF184B184A1A60184A184B1B6843F400731360B6
:4004C00000237B600FE07B68032B04D8134A7B6852F8233000E0124B12497A6841F822307B6801337B607B682F2BECD90E4B1B78DAB20E4B1A700E4B0A4A1A6000F0A0F941
:4005000000F092FD0B4B00221A600837BD4680BD0CED00E00004FA0514ED00E000000000090400000080FF1FBC7600400481FF1F08ED00E00081FF1F80B582B000AF7860EC
:400540003960786800213A6800F0BFFF0837BD4680BD00BF80B584B000AFF860B9607A60F868B9687A6800F0A5FF1037BD4680BD80B483B000AF0346FB71FEE780B582B05B
:4005800000AF454B00221A60444B10221A70444B01221A70434B00221A70434B4FF490721A80424B01221A70414B03221A70414B414A92B21A80414B47F608021A80404BD0
:4005C00000221A803F4B4FF480421A803E4B09221A703E4B0C221A703D4B13221A703D4B16221A70BFF35F8F3B4B01221A70BFF35F8F00BF2C4B1B889BB2002BFAD1002354
:400600007B600DE07B68DA00344B13441946344A7B6852F823309BB20B807B6801337B607B68232BEED9BFF35F8F2B4B01221A70BFF35F8F00BF2B4B1B78DBB203F0010391
:40064000002BF8D100BF284B1B78DBB203F00103002BF8D100BF254B1B78DBB203F00103002BF8D100BF224B1B78DBB203F00103002BF8D100BF1F4B1B78DBB203F0010398
:40068000002BF8D11C484FF090410622FFF762FF0837BD4680BD00BF6081FF1F00760040107000401970004000780040027800400378004004780040280000000678004008
:4006C000047600400676004029700040397000406970004079700040147000400C780040E814000018700040287000403870004068700040787000401051014080B582B02B
:4007000000AF304B03221A802F4B18221A702F4B02221A704FF0402308221A702C4B03221A702C4B2C4A1278D2B21A702B4B08221A802B4B41F251221A800023FB701923AF
:400740007B6014E0FB785B00DAB2264B1B78DBB203F00103DBB21343DBB203F00303FB704FF4F07000F034FC7B68013B7B607B68002B02D0FB78032BE4D17B68002B02D120
:400780000320FFF7F5FE184B4FF480721A80164B07221A70154B00221A70154B48221A70114B00221A70134B02221A70124A124B1B78DBB243F00103DBB213700837BD4611
:4007C00080BD00BF80400040824000400043004000420040A14600400801004922420040204200402542004004400040064000400840004001400040A243004080B483B0F1
:4008000000AF0B4B1B78FB710A4AFB7903F00703DBB21370084AFB791B09DBB21370074B44221A700C37BD465DF8047B704700BFCF0100496E5800406F58004076580040DF
:4008400080B500AF72B62E4A2D4B1B78DBB243F00403DBB21370FFF791FE2A480421FFF76BFE29480421FFF767FE284A274B1B78DBB243F00203DBB21370254A244B1B78E9
:40088000DBB243F00203DBB21370224A214B1B78DBB243F04003DBB213701F4A1E4B1B78DBB243F01003DBB213701C481C490822FFF750FE1B481C490A22FFF74BFE1B48D0
:4008C0001B490822FFF746FE1A4A1A4B1B78DBB243F00803DBB21370174B00221A70FFF70DFF154B80221A70144B01221A70FFF785FF134807490E22FFF72CFE80BD00BFE0
:40090000E846004000760040087600400350014013500140A0430040C243004002510040480700481051004050070048225100405C070048224300400048004004000840F4
:40094000B043004080B582B000AF00F060FB0346FB710B4A0A4B1B78DBB243F02003DBB21370FB79184600F056FB064A054B1B78DBB243F00403DBB213700837BD4680BD62
:40098000906400407264004080B400AF124A124B1B78DBB223F00703DBB213700E4B0E4A1278D2B21A700D4A0C4B1B78DBB223F00703DBB21370094B084A1278D2B21A7082
:4009C000074B40221A70074BC022D2B21A70BD465DF8047B704700BF8164004082640040226400403264004080B500AF054B1B78002B04D1FFF7C8FF024B01221A70FFF7CF
:400A0000A1FF80BD6881FF1F80B582B000AF00F0FEFA0346FB710B4A0A4B1B78DBB243F01003DBB21370FB79184600F0F4FA064A054B1B78DBB243F00103DBB21370083709
:400A4000BD4680BD916400407264004080B582B000AF00F0DCFA0346FB710B4A0A4B1B78DBB243F01003DBB21370FB79184600F0D2FA064A054B1B78DBB243F00203DBB227
:400A800013700837BD4680BD926400407264004090B585B002AF0446084611461A462346FB710346BB710B46BB8013467B80114B00221A700F4B1878F979BA7900230093F7
:400AC00000230193002300F0AFFB0A4B1978BA887B88084611461A4600F04AFB054B1B781846022100F014FB024B1B7818460C37BD4690BD1481FF1F80B500AF282000F01A
:400B00007FFC032000F0D4F9052000F079FC032000F0CEF90F2000F073FC032000F0C8F9012000F06DFC022000F0C2F9052000F067FC062000F0AAF80E2000F0A7F82C2014
:400B400000F0A4F8082000F0A1F8012000F09EF80C2000F09BF8032000F098F8052000F04FFC80BD80B500AF0C2000F08FF8024B01221A7080BD00BF6981FF1F80B500AF39
:400B8000054B1B78002B04D1FFF7B6FF024B01221A70FFF7E7FF80BD6A81FF1F80B582B000AF03460A46FB711346BB71FB79032B26D801A252F823F0C90B0000D70B000095
:400BC000E50B0000F30B0000BB79803BDBB2184600F05CF815E0BB79403BDBB2184600F055F80EE0BB796C3BDBB2184600F04EF807E0BB792C3BDBB2184600F047F800E0B7
:400C000000BF0837BD4680BD80B584B000AF78600123FB737B681B78BB730BE0BB7B184600F01AF8FB7B7A6813441B78BB73FB7B0133FB73BB7B002BF0D11037BD4680BD9E
:400C400080B582B000AF0346FB71FB79184600F003F80837BD4680BD80B584B000AF0346FB7100F02DF8FB791B09FB73FB7B184600F0E2F8FB7903F00F03FB73FB7B18462C
:400C800000F0DAF81037BD4680BD00BF80B584B000AF0346FB7100F013F8FB791B09FB73FB7B184600F004F9FB7903F00F03FB73FB7B184600F0FCF81037BD4680BD00BFB8
:400CC00080B582B000AF4FF4CA737B60554A554B1B78DBB223F07F03DBB21370524B1B78DBB223F00F03FB704F4AFB7843F00F03DBB213704D4B1B78DBB223F00F03FB7089
:400D00004A4AFB7813704A4B1B78DBB223F00F03FB70474AFB781370424A424B1B78DBB223F02003DBB213703E4A3E4B1B78DBB243F04003DBB21370002000F083FB394A16
:400D4000384B1B78DBB243F01003DBB21370012000F078FB374B1B78FB70324A314B1B78DBB223F01003DBB21370002000F06AFBFB7803F00803FB702A4A2A4B1B78DBB2CE
:400D800043F01003DBB21370012000F05BFB254A244B1B78DBB223F01003DBB21370FB78002B02D10A2000F04DFB7B68013B7B60FB78002B02D07B68002BBDD1194A194BA2
:400DC0001B78DBB223F04003DBB21370154A154B1B78DBB223F07F03DBB21370124A124B1B78DBB223F00F03DBB213700F4B1B78DBB223F00F03FB700C4AFB7843F00F03C3
:400E0000DBB213700A4B1B78DBB223F00F03FB70074AFB7843F00F03DBB213700837BD4680BD00BF205100402251004023510040245100402151004080B582B000AF034668
:400E4000FB711A4A194B1B78DBB243F02003DBB21370164A154B1B78DBB223F04003DBB21370002000F0EEFA104A104B1B78DBB223F00F03DBB213700C490C4B1B78DAB2A5
:400E8000FB791343DBB243F01003DBB20B70012000F0D8FA054A054B1B78DBB223F01003DBB213700837BD4680BD00BF2051004080B582B000AF0346FB71144A134B1B78AC
:400EC000DBB223F06003DBB21370104A0F4B1B78DBB223F00F03DBB213700C490B4B1B78DAB2FB791343DBB243F01003DBB20B70012000F0A7FA054A044B1B78DBB223F0E4
:400F00001003DBB213700837BD4680BD2051004080B582B000AF0346FB71FB791B09DBB21A46084B9B5C1846FFF78AFEFB7903F00F03044AD35C1846FFF782FE0837BD46DC
:400F400080BD00BF7815000090B585B002AF0446084611461A462346FB710346BB710B46BB8013467B80114B01221A700F4B1878F979BA790023009300230193002300F02C
:400F800053F90A4B1978BA887B88084611461A4600F0EEF8054B1B781846022100F0B8F8024B1B7818460C37BD4690BD1581FF1F80B400AF044B1B78DBB2DB09DBB2184635
:400FC000BD465DF8047B70471151004000000000142816D902B4012114381049097811F0C001890904B40E4A515C04BC00BF00BF00BF8841FDD500BF00BF02BC704700BF3D
:4010000000BF70F10400FCD570470B050709EFF3108072B6704780F310887047004800400A100000AFF3008080B483B000AF134B7F221A70124B80221A707F23FB710CE0EB
:40104000FB79DB0003F1804303F5F043FA79013AD2B21A70FB79013BFB71FB79002BEFD1FB79DB0003F1804303F5F04300221A700C37BD465DF8047B704700BF1981FF1FE3
:401080001881FF1F80B485B000AF03460A46FB711346BB710123FB60FB79172B2FD8BB79002B0ED0FB791A01184B1344FA791101164A0A441278D2B242F02002D2B21A7072
:4010C0000DE0FB791A01114B1344FA7911010F4A0A441278D2B222F02002D2B21A70FB791A010A4B1344FA791101084A0A441278D2B242F00102D2B21A700023FB60FB68B3
:4011000018461437BD465DF8047B70471070004080B485B000AF03460A46FB711346BB710123FB60FB79172B18D8FB791A010F4B13441B78DBB223F00E03FB72FB791A0171
:401140000A4B1344BA7902F00702D2B25200D1B2FA7A0A43D2B21A700023FB60FB6818461437BD465DF8047B704700BF1070004080B485B000AF0346FB710B46BB80134624
:401180007B800123FB60BB8841F6FF72934202D14FF40053BB807B8841F6FF72934202D14FF400537B80FB79172B17D8FB79DB0003F1804303F5EC430433BB60BB68BA88E4
:4011C0001A80FB79DB0003F1804303F5EC430633BB60BB687A881A800023FB60FB6818461437BD465DF8047B704700BF80B485B000AF03460A46FB711346BB710123FB601D
:40120000FB79172B07D8FB791A01064B1344BA795A720023FB60FB6818461437BD465DF8047B70471070004090B484B000AF0446084611461A462346FB710346BB710B46FA
:401240007B7113463B710123FB60FB79172B34D8FB79DB0003F1804303F5EC43BA7902F07F02D1B27A79D201D2B20A43D2B21A70FB79DB0003F1804303F5EC433A7E120149
:40128000D1B23A7902F00F02D2B20A43D2B25A70FB79DB0003F1804303F5EC433A7F02F00F02D2B29A70FB79DB0003F1804303F5EC430022DA700023FB60FB681846103740
:4012C000BD4690BC704700BF80B582B000AFFF23FB71FFF79CFE0346BB71104B1B78182B12D90F4B1B78FB710C4B1B78013BDAB20A4B1A70FB79DB0003F1804303F5F04349
:401300001B78DAB2064B1A70BB791846FFF783FEFB7918460837BD4680BD00BF1881FF1F1981FF1F90B484B000AF0446084611461A462346FB710346BB800B46BB71134686
:40134000FB700123FB60FB795BB2002B23DBBB8823F47F6323F00F039BB2002B1BD1FB79DB0003F1804303F5F043BB60BB68BA881A80FB79DB0003F1804303F5F043BA7965
:401380009A70FB79DB0003F1804303F5F043FA78DA700023FB60FB6818461037BD4690BC704700BF80B485B000AF0346FB710B46BB8013467B800123FB60FB795BB2002B13
:4013C00017DBFB79DB0003F1804303F5F0430433BB60BB68BA881A80FB79DB0003F1804303F5F0430633BB60BB687A881A800023FB60FB6818461437BD465DF8047B70471D
:4014000080B582B000AF786008E00C4B1B681846FFF7DEFD7B68A3F500437B607B68B3F5004FF2D8064B1B687A6802FB03F31846FFF7CEFD0837BD4680BD00BF2C81FF1FBF
:401440002481FF1F80B582B000AF0346FB80FB88044A127802FB03F31846FFF7B9FD0837BD4680BD2881FF1F0E4B70B51E460E4C0025E41AA410A54204D056F825309847E1
:401480000135F8E700F080F8084B094C1E46E41AA4100025A54204D056F8253098470135F8E770BD9415000094150000941500009C15000010B5431E0A44914204D011F87D
:4014C000014B03F8014FF8E710BD03460244934202D003F8011BFAE7704700000000000054583A0052583A00680100006001000058010000500100004801000048010000F4
:4015000048010000480100006081FF1F6081FF1F6081FF1F6081FF1F6081FF1F6081FF1F6081FF1F6081FF1F6081FF1F6081FF1F08000048100000481802004818000048B9
:401540009800004818010048980100483802004848020048C802004848030048C803004848040048C804004848050048C805004848060048C80600483031323334353637E3
:401580003839414243444546F8B500BFF8BC08BC9E46704795010000A9040000F8B500BFF8BC08BC9E46704771010000C01500000881FF1F2800000040000000000000008E
:4015C00000000000CAFEFACE1E000000FFFF0000807F00000300000000366E01C05D0000180000000000E02E00000000000000000000000000000000000000000000000055
:4016000000000000000000000000000000000000000000000000000000000000000000000000000000000000000000000000000000000000000000000000000000000000AA
:40164000000000000000000000000000000000000000000000000000000000000000000000000000000000000000000000000000000000000000000000000000000000006A
:40168000000000000000000000000000000000000000000000000000000000000000000000000000000000000000000000000000000000000000000000000000000000002A
:4016C00000000000000000000000000000000000000000000000000000000000000000000000000000000000000000000000000000000000000000000000000000000000EA
:020000040003F7
:0200000480007A
:40000000050000000000000001280000000000000000000080000000FF00008000803F101080C0208080404000800008000040000200C07F00FFBF000480C004C080200263
:400040000180C0010800C07F000000000000FFFF000000000000000000000000000000000000000000000000000000000000022404040004000000010000000000000000C6
:40008000000000000000000000000000000000000000000000000000600290F00009004421004211420021086709882400000011E801048C0000FF11000000000000631108
:4000C0006300000000006300800200F0E0071F0880080000000000403205000000EB0CC027FFFFFF00000000040000000100000004040404000000010000C0004001800049
:4001000030004010100040A80000000000000000000000000000000000000102080200000000020201000003020204000008011000040100000001010410000800000400EA
:400140000104000001000008010008040618000300000000000000002104030006C0510E1EFFFFFF02200005040007000100000004040404000000010000400140015001C4
:400180004001701040100000000000000000000000000000000000000000020000000400000020002400480000000000000040000000080000000000000011000000110032
:4001C0000000030000000000030060000C00100000000000000040000000000000000000000000000000000000000000000000000400000000000001000000000000000038
:40020000000000000000000000000000000000000000000000000000000000000000000000000000000000007F00000000000000000000000000000001000000000000003E
:400240000100000000000000000000000000000000000000000000000000000000000000000000000000000000000000000000000050080000000000042000000000000001
:40028000000000000000000000000000000000000000000000000000000000000000000000000000000000000000000000000000000020000000000000000000000000001E
:4002C0000000000000000000004200280010025000002800000481048800200000A05000008208080010A000000000000000A8040000000000002042000000000000960003
:400300000000000000AA00000000000000A20004000000008000040000000000040050000000000000A0000000000000000000000000000009841010000000000000000048
:4003400008040000000000000000000000000000000000000000002800E8218402001000000022400802001000B7060200008000002040000020000000000000000000006F
:400380000000000000000000FF00F600FE0000000000B000F000F000F00020000000300000000000000000004000100000000000000000000000000000000000000000002A
:4003C00000000000000000002042001001000A00000011040002090008000089002800400000010001A20842020000000014620000002A01000008000000811000002248D3
:4004000002680000220800820000000000140000000000000000520000000000000100400000000000208000080000000000000010E802C80000000008002A05000000005E
:40044000000000000000000000000000000000000000000000000000000000000000000000000000000000000000000000000000000000000000000000000000000000007C
:400480000000000000000000DF00D700EF00000000004F00FD00FF0060001000000030000400000000000000000000000000000000000000000000000000000000000000A8
:4004C0000000000000000000000000000000000000000000000000000000000000000000000000000000000000000000000000000200800400000000000000400000000036
:400500000000000000000000000000000000000000000000000000000000000000000000000000000000000000000000000000000000A000000020000000000000000000FB
:400540000000000000000000000000000200000000000000000000000000000000000000000000000000000000000000000000000000000000000000000000000000000079
:4005800000000000000000000000000000000000000000000000000006000000000080000000000000000000000000080000000000000000000000000000000000000000AD
:4005C00000000000000000000000000000000000000000000500000000000000000000400000000000000000000000000000000000000000000400000000000000000000B2
:4006000000000000000000002000000000000000000000000000000000000000E000000040000000000000000000000000000000000000000000400000000000000000003A
:40064000000000000000000000000000000000000000000000000000000000000000000000000000000000000000000000000000000000000000000000000000000000007A
:4006800000040000000000400000000000000000000000000000000000000000000000000000000000000000000000000000000000000000000000000000000000000000F6
:4006C00000000000000000000000000000000000000000000000000000000000000000000000000000000000000000000000000000000000000000000000000000000000FA
:400700000000000000000000000000000000000000000000000060000000000000000000000000000000000000000000000000000000000000000000000000000000000059
:400740000000000000000000022D2D002D000000800000800000000000000000007F7F000000000000000000000000000000000000000000000000000000000000000000F2
:400780000000000000000000000000000000000000000000000000000000000000000000000000000000000000000000000000000000000000000000000000000000000039
:4007C00000000000000000000000000000000000000000000000000000000000000000000000000000000000000000000000000000000000000000000000000000000000F9
:4008000000000000000000000000000000000000000000000000000000000000000000000000000000000000000000000000000000000000000000000000000000000000B8
:400840000000000000000000000000000000000000000000000000000000000000000000000000000000000000000000000000000000000000000000000000000000000078
:0200000490006A
:0400000000004005B7
:0200000490105A
:04000000BC90ACAF55
:0200000490303A
:020000006A8B09
:0200000490402A
:4000000000000000000000000000000000000000000000000000000000000000000000000000000000000000000000000000000000000000000000000000000000000000C0
:400040000000000000000000000000000000000000000000000000000000000000000000000000000000000000000000000000000000000000000000000000000000000080
:400080000000000000000000000000000000000000000000000000000000000000000000000000000000000000000000000000000000000000000000000000000000000040
:4000C0000000000000000000000000000000000000000000000000000000000000000000000000000000000000000000000000000000000000000000000000000000000000
:0200000490501A
:0C00000000012E12306900012E1A9AF443
:00000001FF