:4000000000800020110000009D1300009D13000080B500AF024A034B1B68136001F0C2F9BC760040FA46004010B5054C237833B9044B13B10448AFF300800123237010BDFB
:400040007881FF1F0000000094800000084B10B51BB108480849AFF300800848036803B910BD074B002BFBD0BDE81040184700BF00000000948000007C81FF1F0881FF1F39
:400080000000000080B500AF0E4B1B78002B18D000F0CEF80C4B1B78002B05D00A4B1B78013BDAB2084B1A70084B1B78002B05D0064B1B78013BDAB2044B1A70014B002257
:4000C0001A7080BD9481FF1F9B81FF1FB181FF1F90B583B000AF4D4B1B78002B02D14B4B01221A70494B1B78012B22D10023FB80464B02221A700023FB8006E0FB88444A31
:400100000021D154FB880133FB80FB88B3F5907FF4D30023FB8006E0FB883E4A0021D154FB880133FB80FB88BF2BF5D93A4BC0221A8004F07FFE0346002B63D0012004F0D6
:4001400093FE03461A46354B1A70344B1B78022B08D1334A324B1B78DBB223F00203DBB213700BE02D4B1B78012B07D12C4A2C4B1B78DBB243F00203DBB21370274B1B788D
:40018000002B0FD0274B1B78DBB203F00F03012B08D101201E494FF4907205F023F8012005F088F81D4B5C78022004F05DFE03469C4222D0022004F057FE03461A46174BEA
:4001C0005A70164B5B78002B17D0174B1B78DBB203F00F03012B10D10F4BC0221A800E4B1B8802200B491A4604F04AFF0A4B1B88022000211A4604F043FF04200B4901220A
:4002000004F03EFF0C37BD4690BD00BF9781FF1FCC82FF1F0C82FF1F0882FF1F0C81FF1F726400400E6000401E6000409981FF1F80B582B000AF0423FB712E4B1B78002B00
:4002400000D154E004F0D0FD0346002B03D02A4B00221A7005E0284B1B780133DAB2264B1A70254B1B78052B41D904F0D7FD0346002B39D0214B1B78002B04D11F4B01228C
:400280001A7000F031FD07F003FA00F079FF0DE0642003F0A5FC04F0C1FB0346DB43DBB2184604F09DFBFB79013BFB71FB79002BEED105F0F3FF03F0A1FD0020402104F040
:4002C0005FF803F0DDFE06F083F807F0F9F900F071FF04F0A3FD0346002B05D0084B01221A70002006F008FC034B00221A700837BD4680BDFC81FF1F9581FF1F1681FF1F2B
:40030000FC8BFF1F80B500AF074B1B78002B09D10020022104F092FB044B01221A70044B01221A7080BD00BFFC81FF1F9781FF1F9681FF1F80B500AF62B601F0BDFE054897
:4003400001F048FF03F098FB0320032103F0BAFC80BD00BFCD12000080B500AF00F004F800F0EAFD80BD00BF80B500AF00F020F804F054FD0346002B14D0042004F086FD2D
:400380000346012B0ED1084B1A78084B1B789A4208D0064B1A78044B1A7004200021012204F06EFE80BD00BF9A81FF1F9981FF1F80B500AF01F070FE0346002B22D11C4B68
:4003C0001B7803F00403002B0AD1194B1B7843F00403DAB2164B1A70164B04221A7025E0134B1B7803F00403002B1FD0114B1B78002B1BD1104B1B7843F00103DAB20E4B97
:400400001A7013E00A4B1B7803F00403002B0DD0074B1B7823F00403DAB2054B1A70064B1B7823F00103DAB2034B1A7080BD00BF9881FF1F9B81FF1F9981FF1F90B583B074
:4004400000AF002003F058FA944803F0FDFB642003F0E8FB02F0C2FF914B00221A7001F0B7FB904B01221A70022002F0C7FF002002F05CFF002001F0CFFB0C2001F0BCFDE9
:40048000012001214FF400524FF4804301F094FC03461A46844B1A70022001214FF480424FF4005302F070FA03461A467F4B1A700023FB7110E0FC7902F072FE03461A46A4
:4004C0007B4B1A55FC7902F06BFE03461A46794B1A55FB790133FB71FB79072BEBD90023FB7156E0FB79724AD15CFB795A1C724B1340002B03DA013B63F0070301331A464C
:400500006B4B9B5C084690211A46052302F0A0FEFB79684AD15CFB795A1C674B1340002B03DA013B63F0070301331A46614B9B5C084660211A46062302F08AFEFB795C4AF1
:40054000D15CFB799BB21A46D20013441B019AB25A4B9BB213449BB20846194646F2404202F0B6FEFB79534AD15CFB799BB21A46520013445B019AB2514B9BB213449BB2BC
:4005800008464CF2A8711A4602F0A2FEFB790133FB71FB79072BA5D9012001214FF480424FF4804301F080FE03461A46454B1A7002F0F6FD03461A46434B1A70424B1A7827
:4005C000414B1B78104601211A46002302F040FE3D4B1B78184646F2504146F2414202F077FE384B1A78384B1B781046194602F03DFD012000214FF400524FF4005301F0E3
:4006000017FD03461A46314B1A7002F0C9FD03461A462F4B1A7002F0C3FD03461A462C4B5A70012000214FF400524FF4005301F0AFFC03461A46274B1A7002F0B1FD03465F
:400640001A46254B1A7002F0ABFD03461A46224B5A70224801F0E4FB214802F0C9F9214801F048FC204A204B1B78DBB243F00C03DBB2137001F0A2FE06F09CFF00F0ACFCB0
:400680001A4806F049FF1A4B0C221A70194B55221A7002F0E9F80C37BD4690BD00366E0121420040EC83FF1FFD83FF1F0884FF1F0084FF1FF483FF1F070000801084FF1F25
:4006C0009488FF1FFE83FF1FED83FF1F948BFF1FF083FF1FFC83FF1F0C84FF1FF1120000751200005D1200009164004049130000B4C70040B0C7004080B582B000AF7D4BA0
:400700001B78012B40F0F3807B4B1B78002B08D07A4B00221A807A4B00221A80764B00221A70784B1B78184602F0CEFB012004F0C3FB0346FB8001F0B5FB714B1A88FB8804
:4007400013449AB26E4B1A8001F0A0FB6B4B1B881A46FB881344B3F5906F45D9674B1B88C3F59063BB80684B1978674B5B78BA88084611461A46232302F06AFD624B597837
:40078000FA88BB88D31A9BB208461946FE22032302F05EFD5C4B18785C4B99B2574B1A885B4B9BB213449BB21A4602F091FD564B5978564B9AB2BB8813449AB2544B9BB2E5
:4007C000084611461A4602F083FD4E4B1A784E4B1B781046194602F049FCFA88BB88D31A9AB2464B1A802CE0474B1A78FB8810461946FE22032302F02BFD434B1878434BA2
:4008000099B23E4B1A88424B9BB213449BB21A4602F05EFD3B4B1A783B4B1B781046194602F024FC354B1A88FB8813449AB2334B1A80324B1B88B3F5906F02D12F4B002289
:400840001A80304B1B781846012102F0F7FA2D4B1B781846012102F027FC2E4B1B78002B45D1274B1B88B3F5107F40D3294B01221A7001F08DF900BF274B1B781A01274B38
:4008800013441B7ADBB203F00203002BF4D1224B1B781846042102F007FC1F4B1B781846012102F0CBFA00BF1B4B1B781A011B4B13441B78DBB203F00103002BF4D1164B33
:4008C0001A78174B1B781046194602F0CFFB124B1B781846012102F0B1FA01F019FD114B1B781846012102F0A9FA01F0FBF80837BD4680BDB281FF1F9C81FF1FA481FF1FB6
:40090000A081FF1F948BFF1FF083FF1FCC82FF1F1084FF1F9D81FF1FFD83FF1F107000400084FF1FFE83FF1F80B582B000AFC023FB807F4B1B78012B40F0F6807D4B1B78B3
:40094000002B0BD07C4B00221A807C4B00221A80784B00221A707A4B00221A70794B1B78184602F0B1FA784B1B78012B07D0022B18D0002B00D018E0C023FB8015E0704BCA
:400980001B78092B05D1B423FB806D4B00221A700BE0B023FB806A4B1B780133DAB2684B1A7002E08023FB8000BF684AFB88138002F060F8614B1A88FB8813449AB25F4B77
:4009C0001A8002F04BF85C4B1B881A46FB881344B3F5407F45D9584B1B88C3F54073BB805B4B19785A4B5B78BA88084611461A46232302F02DFC564B5978FA88BB88D31AB8
:400A00009BB208461946FE22072302F021FC504B1978494B1A884F4B9BB213449AB24E4B9BB2084611461A4602F052FC484B5878484B99B2484B9AB2BB8813449BB21A46E5
:400A400002F046FC3F4B1A78414B1B781046194602F00CFBFA88BB88D31A9AB2364B1A802EE03B4B1A78FB8810461946FE22072302F0EEFB364B19782F4B1A88354B9BB2C2
:400A800013449AB2344B9BB2084611461A4602F01FFC2C4B1A782E4B1B781046194602F0E5FA254B1A88FB8813449AB2224B1A80214B1B88B3F5407F02D11F4B00221A806C
:400AC000204B1B781846012102F0B8F91D4B1B781846012102F0E8FA204B1B78002B23D1164B1B88B3F5C07F1ED31C4B01221A701B4B1B781846042102F0D6FA184B1B7845
:400B00001846012102F09AF9154B1A78154B1B781046194602F0AAFA114B1B781846012102F08CF901F030FC0837BD4680BD00BFB281FF1FA681FF1FAE81FF1FA881FF1F15
:400B4000B381FF1FFC83FF1FEC83FF1F0882FF1F0C84FF1F9488FF1F0C82FF1FA781FF1F0884FF1FF483FF1F80B500AF104B1B78002B1CD000F0D8FF142003F053F801F025
:400B8000E9FB0C4B1B78184602F09EF90A4B1B78184602F099F9094B01221A70084B00221A80084B00221A80014B00221A7080BD9D81FF1FFD83FF1FFE83FF1F9C81FF1FAE
:400BC0009E81FF1FA281FF1F80B500AF0E4B1B78002B17D00D4B1B781846042102F064FA0B4B01221A700B4B01221A700A4B4FF440721A80094B00221A80034B00221A70E3
:400C000001F0DCFB80BD00BFA781FF1F0884FF1FA681FF1FAC81FF1F1481FF1FAA81FF1F80B582B000AF0346FB71FFF79DFFFFF7CBFF002002F060FE174803F005F8174A37
:400C4000FB791370FB79184600F0E6FFFB79012B0ED0022B02D0002B05D00EE00220002101F0C6FB09E00120002101F0C1FB04E00120002101F0BCFB00BF012002F03CFEC4
:400C8000074802F0E1FF074B01221A7000F0E0FA0837BD4680BD00BF00366E01EC83FF1F40A5AE02B281FF1F80B500AF0C2001F005F90C2000F096FE0C2001F0D9FA094B01
:400CC0001B78DBB203F01003002B07D1054A054B1B78DBB243F00103DBB2137000F0C6FE80BD00BF1E50004080B500AF002002F003FE0D4802F0A8FF642002F093FF00F08A
:400D0000C5FE022001F0DAF8022000F06BFE022001F0AEFA054B00221A70054B00221A70044BFF221A7080BD00366E01B481FF1FB281FF1F1781FF1F80B582B000AF404B06
:400D40001B78DBB2002B78D13E4B1B78DBB2002B73D03D4B1B78002B04D13A4B1B78DBB2012B08D0394B1B78002B63D1354B1B78DBB2022B5ED10023FB71324B1B78DBB266
:400D80001946334A0B465B000B44134402331B78DBB21A042B4B1B78DBB218462C4903465B0003440B4401331B78DBB21B021A43244B1B78DBB21846254903465B000344DB
:400DC0000B441B78DBB213433B601E4B00221A703B684BF68032934202D10023FB710DE03B684AF64442934202D10123FB7105E03B68B3F5FA4F01D10223FB71154B1B7854
:400E0000FA799A4212D0134AFB791370124B1B78002B03D0114B01221A7007E00D4B1B781846FFF7FDFE0D4B00221A700C4B00221A7002E0034B00221A700837BD4680BDB3
:400E4000FE8BFF1FDF8BFF1FA781FF1F9D81FF1FC48BFF1F1781FF1F1681FF1FB081FF1FB181FF1F80B500AF2C4B1B78002B28D12A4B1B78002B24D1294B5B78DBB2002B11
:400E80001FD1274B9B78DBB2002B1AD1254B1B78002B02D1234B64221A70224B1B78012B0FD11E4B01221A70FFF71EFF1E4A1E4B1B78DBB223F00103DBB213701B4B0022C6
:400EC0001A70164B1B78012B26D1144B1B78012B22D1134B5B78DBB2002B04D1104B9B78DBB2002B18D00D4B00221A70FFF7DCFE0D4A0D4B1B78DBB243F00103DBB213708A
:400F00000B4B1B78002B07D00A4B1B781846FFF787FE074B00221A7080BD00BF1681FF1FE88BFF1FB181FF1F1E500040B481FF1FB081FF1F1781FF1F80B400AF0E4B1B78A0
:400F4000002B03D10D4B1B78002B08D00C4A0C4B1B78DBB223F00103DBB2137007E0084A074B1B78DBB243F00103DBB21370BD465DF8047B704700BFA781FF1F9D81FF1FCF
:400F80001450004080B483B000AF104B1B78002B17D00023FB800DE0FB88BF2B03D8FB880B4A0021D154FB880A4A0021D154FB880133FB80FB88B3F5407FEDD3034B00221D
:400FC0001A700C37BD465DF8047B7047AC81FF1F0C82FF1F9488FF1F80B582B000AF022001214FF480424FF4804301F0CDFA0346FB7102F0D5F803463B7102F0D1F80346DB
:401000007B713A797B79104602211A46202302F01FF97A793B79104602211A46002302F017F93B79184646F688014CF2A27202F04FF97B79184646F684014CF2A07202F09A
:4010400047F93B79FA791046194602F00FF8FB791846012101F0F2FE022001214FF480424FF4804301F0C4FA0346BB7102F098F803463B7002F094F803467B703A787B7846
:40108000104602211A46202302F0E2F87A783B78104602211A46002302F0DAF83B78184646F69C014CF2A67202F012F97B78184646F698014CF2A47202F00AF93B78BA7951
:4010C0001046194601F0D2FFBB791846012101F0B5FE0837BD4680BD80B400AF094B1B78DAB2094B5A70094B1B78DAB2064B9A70074B1B78DAB2044BDA70BD465DF8047B7F
:40110000704700BF80C700401081FF1F84C7004090C7004080B500AF114B124A52781A70114B104A92781A70104B0E4AD2781A700F4A0F4B1B78DBB243F01003DBB21370F7
:401140000C4B3F221A700C48102100F063F80A480A490E2200F03CF8064B00221A7080BD80C700401081FF1F84C7004090C70040A64300408CC7004000C70040F08500009A
:4011800080B500AF094B1B78DBB203F01003002B03D0074B01221A7002E0054B00221A7001F072FBFFF798FF80BD00BFA64300401081FF1F80B500AFFFF7ACFF034B1B78D1
:4011C000012B01D101F01EFB80BD00BF1081FF1F80B487B000AFF860B9601346FB710023FB750FE0FB7D9B00FA681344FA7D9200B9680A4412681A60FB79013BFB71FB7D9E
:401200000133FB75FB79002BECD11C37BD465DF8047B704780B485B000AF78600B46FB700023FB730BE0FB7B9B007A68134400221A60FB78013BFB70FB7B0133FB73FB781A
:40124000002BF0D11437BD465DF8047B704700BF80B400AFBD465DF8047B704780B500AF034B1B88022000211A4603F009FF80BD0882FF1F80B582B000AF114B1A88114BB1
:401280001B88D31AFB80104B1A88FB88D31A9AB20D4B1A800A4B1A880A4B1A800A4B1B88B3F5407F02D3FFF78FFC05E0064B1B8860339AB2044B1A800837BD4680BD00BFFE
:4012C000A881FF1FAA81FF1F1481FF1F80B400AF054B1B78DAB2054B1A70044B01221A70BD465DF8047B7047904300409481FF1F80B582B000AF114B1A88114B1B88D31AAF
:40130000FB80104B1A88FB8813449AB20D4B1A800A4B1A880A4B1A800A4B1B88B3F5907F02D8FFF721FC05E0064B1B88903B9AB2044B1A800837BD4680BD00BFA081FF1F45
:40134000A281FF1F9E81FF1F80B582B000AF06F0C5F90346FB710837BD4680BD80B500AF002006F0AFFDFFF769F8FEF7E3FF03F055FD0346002B05D0FEF7AAFEFFF772FD8D
:40138000FFF7DAFCFEF7E8FFFEF7BCFFFEF77AFE02F0DEFCFFF7F6FDE9E700BF80B400AFFEE700BF80B586B000AF214B7B61214B3B611F4B7B611F4B3B612FE03B691B68B1
:4013C000FB603B695B68BB603B699B683B6000237B600AE0BB681A1DBA60FA68111DF96012681A607B6804337B607A683B689A42F0D13B69DB683B6000237B6007E0BB68F4
:401400001A1DBA6000221A607B6804337B607A683B689A42F3D13B6910333B617B695A1E7A61002BCAD106F0FBFDFFF797FFFEE701000000548A000080B582B000AF184B6E
:40144000184A1A60184A184B1B6843F40073136000237B600FE07B68032B04D8134A7B6852F8233000E0124B12497A6841F822307B6801337B607B682F2BECD90E4B1B788F
:40148000DAB20E4B1A700E4B0A4A1A6000F03AF901F0A6FC0B4B00221A600837BD4680BD0CED00E00004FA0514ED00E0000000009D1300000080FF1FBC7600400481FF1F4F
:4014C00008ED00E00081FF1F80B582B000AF78603960786800213A6806F0D3FD0837BD4680BD00BF80B584B000AFF860B9607A60F868B9687A6806F0B9FD1037BD4680BD51
:4015000080B483B000AF0346FB71FEE780B487B000AF7860396000233B6100237B6127E07B699B007A6813441B68BB60BB68FB73BB6823F0FF03BB6014E03B695B003A68DC
:4015400013441B781A46BB68134419463B695B003A6813445B780B703B6901333B61FB7B013BFB73FB7B002BE7D17B6901337B617B69282BD4D91C37BD465DF8047B70475C
:4015800080B582B000AF394B01221A80384B1C221A70384B03221A80374B1C221A70374B07221A80364B1C221A70364B00221A80354B11221A70354B06221A70344B5222D0
:4015C0001A70344B344A1278D2B21A70334B40F20F721A80324B41F251221A800023FB7019237B6014E0FB785B00DAB22D4B1B78DBB203F00103DBB21343DBB203F0030359
:40160000FB704FF4F07001F0DBFB7B68013B7B607B68002B02D0FB78032BE4D17B68002B02D10320FFF76CFF1F4B4FF480721A801D4B07221A701D4B00221A701C4B482207
:401640001A70194B00221A701A4B00221A701A4B02221A70194A194B1B78DBB243F00F03DBB213700837BD4680BD00BF80400040824000408440004086400040884000401E
:401680008A4000408C4000408E4000400043004000420040A14600400F0100492242004020420040254200400440004006400040084000400940004001400040A2430040D3
:4016C00080B483B000AF0B4B1B78FB710A4AFB7903F00703DBB21370084AFB791B09DBB21370074B44221A700C37BD465DF8047B704700BFCF0100496E5800406F580040B8
:401700007658004080B586B000AF72B60023FB7513E0FA7D13465B0013445B007A4A13443B613B691A683B699B889BB210461946FFF7CAFEFB7D0133FB75FB7D072BE8D90B
:401740000023FB751CE0FA7D13469B0013445B006E4A1344FB60FB681B68BB60FB685B687B60FB681A7A5B7A1B0213437B807B88B86879681A46FFF7B5FEFB7D0133FB75EE
:40178000FB7D032BDFD94FF090406149FFF7BEFE60480421FFF798FE5F480421FFF794FE5E485F490422FFF79DFE5E485E490422FFF798FE5D485E490422FFF793FE5D4811
:4017C0005D490422FFF78EFE5C480421FFF77CFE5B485C490422FFF785FE5B480421FFF773FE5A485A490422FFF77CFE59480421FFF76AFE58480421FFF766FE574804216A
:40180000FFF762FE564857490422FFF76BFE56480421FFF759FE554A544B1B78DBB243F00203DBB21370524A514B1B78DBB243F00203DBB213704F4A4E4B1B78DBB243F0B4
:401840004003DBB213704C4A4B4B1B78DBB243F01003DBB21370494849490A22FFF742FE484849490822FFF73DFE484848490A22FFF738FE474848490A22FFF733FE4748F6
:4018800047490A22FFF72EFE464847490822FFF729FE464BC4221A70454BC4221A70454BC4221A70444BC4221A70444BC4221A70434BC4221A70434BC0221A70424BC4227B
:4018C0001A70424BC4221A70414BC4221A70414BC4221A70404A404B1B78DBB243F00803DBB213703D4B61221A70FFF749FE3B4BC1221A70FFF7E4FE39481E490E22FFF73B
:40190000F1FD1837BD4680BD98800000C8800000A40000480076004050760040587600402C13004860760040301300486876004034130048707600403813004808760040C8
:40194000107600403C1300481876004020760040401300482876004030760040387600404076004044130048487600400350014013500140A0430040C24300400051004055
:40198000EC120048C2510040F8120048F051004000130048105100400C1300482051004018130048325100402413004858080140D8080140580A0140D80A0140580C0140C5
:4019C000D80C0140580E0140D80E014058180140D81A0140DB1A01402243004000480040B043004080B483B000AF0346FB710A4B094A1278D2B2D2B222F00E02D1B2FA795D
:401A000002F00E02D2B20A43D2B2D2B21A700C37BD465DF8047B70471850004080B582B000AF01F0D5F90346FB710B4A0A4B1B78DBB243F02003DBB21370FB79184601F04B
:401A4000CBF9064A054B1B78DBB243F00403DBB213700837BD4680BD966400407564004080B500AF002000F081F880BD80B500AF054B1B78002B04D1FFF7F2FF024B0122FE
:401A80001A70FFF7CBFF80BDB581FF1F80B582B000AF114A104B1B78DBB223F00403DBB2137001F095F90346FB710C4A0B4B1B78DBB223F02003DBB21370FB79184601F02C
:401AC0008BF9074B00221A7000F02EF800F060F80837BD4680BD00BF75640040966400407664004080B582B000AF0D4A0C4B1B78DBB243F00103DBB2137001F069F9034694
:401B0000FB71084A074B1B78DBB243F01003DBB21370FB79184601F05FF90837BD4680BD756400409264004080B582B000AF0D4A0C4B1B78DBB223F00103DBB2137001F03A
:401B400047F90346FB71084A074B1B78DBB223F01003DBB21370FB79184601F03DF90837BD4680BD756400409264004080B483B000AF0346FB71054AFB7903F00703DBB297
:401B800013700C37BD465DF8047B70478264004080B582B000AF01F01BF90346FB710B4A0A4B1B78DBB243F00103DBB21370074A064B1B78DBB223F00103DBB21370FB796D
:401BC000184601F009F90837BD4680BD9164004080B400AF0A4B09221A700A4B15221A70094B76221A70094B5D221A70084B35221A70084B0F221A70BD465DF8047B70473A
:401C000026640040366400402665004027650040276400403764004080B582B000AF0346FB71FB79072B4BD801A252F823F000BF511C0000891C0000511C0000511C000084
:401C4000511C0000891C0000891C0000511C0000504B24221A80504B40221A704F4B60221A704F4BC0221A704E4B8D221A704E4B00221A704D4BDC221A704D4B40221A70D7
:401C80004C4B60221A701CE0424B21221A80424BC0221A70414B54221A70414B80221A70404B99221A70404B80221A703F4BDC221A703F4BC0221A703E4B54221A7000E0E6
:401CC00000BF002001F032FBFA2001F0ABFFFB79072B5BD801A252F823F000BF331D0000691D0000211D00000F1D0000FD1C0000451D0000571D00007B1D0000172000217B
:401D000000F0C4FE2F20002100F08CFF3FE00B20002100F0BBFE1720002100F083FF36E00320012100F0B2FE0820012100F07AFF2DE00220012100F0A9FE0520012100F05B
:401D400071FF24E00F20002100F0A0FE1F20002100F068FF1BE00720002100F097FE0F20002100F05FFF12E00220012100F08EFE0520012100F056FF09E00120002100F09B
:401D800085FE0320002100F04DFF00E000BF0837BD4680BD22420040146500401565004024650040256500403465004035650040366500403765004090B585B002AF044679
:401DC000084611461A462346FB710346BB710B46BB8013467B80114B02221A700F4B1878F979BA790023009300230193022301F087F90A4B1978BA887B88084611461A46E8
:401E000001F0F6F8054B1B781846012101F0C0F8024B1B7818460C37BD4690BD1881FF1F80B582B000AF786000F03CF8786800F009F8042000F018F800F028F80837BD46D6
:401E400080BD00BF80B485B000AF7860054B1B68FB60FB6860337A681A601437BD465DF8047B704708ED00E080B483B000AF0346FB71054AFB795B01DBB213700C37BD4608
:401E80005DF8047B704700BF08E400E080B400AF034B4FF480721A60BD465DF8047B704700E100E080B400AF034B4FF480721A60BD465DF8047B704780E100E080B483B0C7
:401EC00000AF0346FB710A4B094A1278D2B2D2B222F00E02D1B2FA7902F00E02D2B20A43D2B2D2B21A700C37BD465DF8047B70476150004080B582B000AF786000F03CF8F3
:401F0000786800F009F8042000F018F800F028F80837BD4680BD00BF80B485B000AF7860054B1B68FB60FB6854337A681A601437BD465DF8047B704708ED00E080B483B0E5
:401F400000AF0346FB71054AFB795B01DBB213700C37BD465DF8047B704700BF05E400E080B400AF034B20221A60BD465DF8047B704700BF00E100E080B400AF034B202207
:401F80001A60BD465DF8047B704700BF80E100E090B585B002AF0446084611461A462346FB710346BB710B46BB8013467B80114B04221A700F4B1878F979BA790023009324
:401FC00000230193042301F09BF80A4B1978BA887B88084611461A4601F00AF8054B1B781846032100F0D4FF024B1B7818460C37BD4690BD1981FF1F80B483B000AF03464C
:40200000FB710A4B094A1278D2B2D2B222F00E02D1B2FA7902F00E02D2B20A43D2B2D2B21A700C37BD465DF8047B70476450004090B585B002AF0446084611461A462346D5
:40204000FB710346BB710B46BB8013467B80114B0A221A700F4B1878F979BA790023009300230193002301F04BF80A4B1978BA887B88084611461A4600F0BAFF054B1B787E
:402080001846032100F084FF024B1B7818460C37BD4690BD1A81FF1F80B400AF054B1B78DBB203F004039B08DBB21846BD465DF8047B70472151004080B500AF054B1B78BF
:4020C000002B04D100F008F8024B01221A7000F00BF880BDB681FF1F80B500AF032000F055F800F03BF880BD80B582B000AF194B1B78DBB203F00203002B18D100F068FED1
:402100000346FB71134A134B1B78DBB243F00203DBB21370104A104B1B78DBB243F00403DBB21370FB79184600F056FE0FE000F04FFE0346FB71084A074B1B78DBB243F0BA
:402140000403DBB21370FB79184600F045FE0837BD4680BD004300408243004080B582B000AF00F035FE0346FB71074A064B1B78DBB243F00803DBB21370FB79184600F07C
:402180002BFE0837BD4680BD8243004080B483B000AF0346FB710D4B1B78DBB203F00403002B0DD10A490A4B1B78DBB223F00F03DAB2FB7903F00F03DBB21343DBB20B704F
:4021C0000C37BD465DF8047B704700BF824300408143004080B582B000AF786000F03CF8786800F009F8072000F018F800F028F80837BD4680BD00BF80B485B000AF7860FE
:40220000054B1B68FB60FB685C337A681A601437BD465DF8047B704708ED00E080B483B000AF0346FB71054AFB795B01DBB213700C37BD465DF8047B704700BF07E400E01F
:4022400080B400AF034B80221A60BD465DF8047B704700BF00E100E080B400AF034B80221A60BD465DF8047B704700BF80E100E080B483B000AF0346FB710A4B094A12782B
:40228000D2B2D2B222F00E02D1B2FA7902F00E02D2B20A43D2B2D2B21A700C37BD465DF8047B70476250004090B585B002AF0446084611461A462346FB710346BB710B46C1
:4022C000BB8013467B80114B09221A700F4B1878F979BA790023009300230193002300F00FFF0A4B1978BA887B88084611461A4600F07EFE054B1B781846012100F048FEEC
:40230000024B1B7818460C37BD4690BD1B81FF1F80B400AF0D4A0D4B1B78DBB223F00303DBB21370094A094B1B78DBB243F00C03DBB21370064A064B1B78DBB243F0010326
:40234000DBB21370BD465DF8047B7047906400407264004080B400AF094A094B1B78DBB243F00303DBB21370064A064B1B78DBB223F00103DBB21370BD465DF8047B70470C
:40238000906400407264004080B400AF094A094B1B78DBB243F00103DBB21370064A064B1B78DBB243F00103DBB21370BD465DF8047B7047A2430040B243004080B400AF0F
:4023C000094A094B1B78DBB223F00103DBB21370064A064B1B78DBB223F00103DBB21370BD465DF8047B7047A2430040B243004080B584B000AF03460A46FB8013467B71AE
:4024000000F0B2F80346FB7300F0A2F80346BB81FA88BB899A4200F08780454B1B78DBB203F00103FB72FB7B002B20D1BB89002B02D0FB88002B1AD1BB89002B0BD13D4A51
:40244000FB8813803C4A3C4B1B78DBB223F04003DBB2137068E0384A374B1B78DBB243F04003DBB21370334AFB8813805CE0FB7A002B33D0314B00221A70314B01221A70FE
:40248000304B00221A70304A2F4B1B78DBB203F07F03DBB21370284B1B78DBB203F00803002B02D0FB88002B18D1284ABB891380224B07221A7000BF204B1B78DBB203F091
:4024C0000103002BF8D11A4A194B1B78DBB223F00103DBB21370194B00221A70144B1B78DBB203F00103002B13D0184AFB881380124A7B79002B01D0032300E001231370D0
:4025000000BF0E4B1B78DBB203F00103002BF8D10AE0084AFB8813800549054B1B78DAB2FB7A1343DBB20B701037BD4680BD00BFA2430040804000408240004001400040A8
:402540001040004014400040084000400240004080B400AF034B1B889BB21846BD465DF8047B70478040004080B400AF054B1B78DBB203F00703DBB21846BD465DF8047B0E
:40258000704700BF8240004090B585B002AF0446084611461A462346FB710346BB710B46BB8013467B80114B06221A700F4B1878F979BA790023009300230193002300F0E2
:4025C0009FFD0A4B1978BA887B88084611461A4600F00EFD054B1B781846012100F0D8FC024B1B7818460C37BD4690BD1C81FF1F90B585B002AF0446084611461A4623467E
:40260000FB710346BB710B46BB8013467B80114B07221A700F4B1878F979BA790023009300230193002300F06BFD0A4B1978BA887B88084611461A4600F0DAFC054B1B787A
:402640001846012100F0A4FC024B1B7818460C37BD4690BD1D81FF1F80B487B000AFF860B9601346FB710023FB750FE0FB7D9B00FA681344FA7D9200B9680A4412681A60B3
:40268000FB79013BFB71FB7D0133FB75FB79002BECD11C37BD465DF8047B704780B485B000AF78600B46FB700023FB730BE0FB7B9B007A68134400221A60FB78013BFB707D
:4026C000FB7B0133FB73FB78002BF0D11437BD465DF8047B704700BF80B582B000AF00F077FB0346FB71364A354B1B78DBB243F01003DBB21370334A324B1B78DBB243F0DB
:402700001003DBB21370FB79184600F065FB2E4A2D4B1B78DBB223F00103DBB213702B4B3F221A702A4B3F221A702A488021FFF7B5FF29488021FFF7B1FF28484021FFF720
:40274000ADFF27484021FFF7A9FF26481021FFF7A5FF25484021FFF7A1FF204823494022FFF77AFF1E4821494022FFF775FF19481F498022FFF770FF17481E498022FFF733
:402780006BFF18481C490E22FFF766FF16481B491622FFF761FF0E4B00221A70002000F09FF8012000F0AEF8002000F0BDF8002000F0D2F8124BFF221A700837BD4680BD86
:4027C000A6430040B643004080C7004088C700408CC7004000C0004000C2004000C4004000C5004000C7004000C60040F0800000F0810000F0830000F0850000288600003F
:4028000084C7004080B582B000AF00F0E1FA0346FB71114A104B1B78DBB243F01003DBB213700E4A0D4B1B78DBB243F01003DBB21370FB79184600F0CFFA094B3F221A705B
:40284000084A084B1B78DBB243F00103DBB213700837BD4680BD00BFA6430040B643004088C7004080C7004080B500AF054B1B78002B04D1FFF730FF024B01221A70FFF7BA
:40288000C1FF80BDB781FF1F80B582B000AF00F09FFA0346FB710F4A0E4B1B78DBB223F01003DBB213700C4A0B4B1B78DBB223F01003DBB21370FB79184600F08DFA074ACD
:4028C000064B1B78DBB223F00103DBB213700837BD4680BDA6430040B643004080C7004080B483B000AF0346FB71054AFB7903F01F03DBB213700C37BD465DF8047B704754
:4029000098C7004080B483B000AF0346FB71054AFB7903F00F03DBB213700C37BD465DF8047B70479CC7004080B483B000AF0346FB710849074B1B78DBB223F00303DAB2AE
:40294000FB791343DBB20B700C37BD465DF8047B704700BF94C7004080B483B000AF0346FB710849074B1B78DBB223F00C03DAB2FB791343DBB20B700C37BD465DF8047B32
:40298000704700BF94C7004090B585B002AF0446084611461A462346FB710346BB710B46BB8013467B80114B08221A700F4B1878F979BA790023009300230193082300F03B
:4029C0009FFB0A4B1978BA887B88084611461A4600F00EFB054B1B781846002100F0D8FA024B1B7818460C37BD4690BD1E81FF1F80B582B000AF786000F03CF8786800F080
:402A000009F8042000F018F800F028F80837BD4680BD00BF80B485B000AF7860054B1B68FB60FB6858337A681A601437BD465DF8047B704708ED00E080B483B000AF0346AE
:402A4000FB71054AFB795B01DBB213700C37BD465DF8047B704700BF06E400E080B400AF034B40221A60BD465DF8047B704700BF00E100E080B400AF034B40221A60BD4636
:402A80005DF8047B704700BF80E100E080B584B000AF03460A46FB8013467B7100F0B2F80346FB7300F0A2F80346BB81FA88BB899A4200F08780454B1B78DBB203F0020379
:402AC000FB72FB7B002B20D1BB89002B02D0FB88002B1AD1BB89002B0BD13D4AFB8813803C4A3C4B1B78DBB223F04003DBB2137068E0384A374B1B78DBB243F04003DBB213
:402B00001370334AFB8813805CE0FB7A002B33D0314B00221A70314B02221A70304B00221A70304A2F4B1B78DBB203F07F03DBB21370284B1B78DBB203F00803002B02D000
:402B4000FB88002B18D1284ABB891380224B07221A7000BF204B1B78DBB203F00103002BF8D11A4A194B1B78DBB223F00203DBB21370194B00221A70144B1B78DBB203F08E
:402B80000203002B13D0184AFB881380124A7B79002B01D0032300E00123137000BF0E4B1B78DBB203F00103002BF8D10AE0084AFB8813800549054B1B78DAB2FB7A134394
:402BC000DBB20B701037BD4680BD00BFA24300408440004086400040014000401040004014400040084000400240004080B400AF034B1B889BB21846BD465DF8047B70479C
:402C00008440004080B400AF054B1B78DBB203F00703DBB21846BD465DF8047B704700BF8640004080B584B000AF03460A46FB8013467B7100F0B2F80346FB7300F0A2F8B6
:402C40000346BB81FA88BB899A4200F08780454B1B78DBB203F00403FB72FB7B002B20D1BB89002B02D0FB88002B1AD1BB89002B0BD13D4AFB8813803C4A3C4B1B78DBB29E
:402C800023F04003DBB2137068E0384A374B1B78DBB243F04003DBB21370334AFB8813805CE0FB7A002B33D0314B00221A70314B04221A70304B00221A70304A2F4B1B7848
:402CC000DBB203F07F03DBB21370284B1B78DBB203F00803002B02D0FB88002B18D1284ABB891380224B07221A7000BF204B1B78DBB203F00103002BF8D11A4A194B1B78A4
:402D0000DBB223F00403DBB21370194B00221A70144B1B78DBB203F00403002B13D0184AFB881380124A7B79002B01D0032300E00123137000BF0E4B1B78DBB203F00103A5
:402D4000002BF8D10AE0084AFB8813800549054B1B78DAB2FB7A1343DBB20B701037BD4680BD00BFA2430040884000408A40004001400040104000401440004008400040D3
:402D80000240004080B400AF034B1B889BB21846BD465DF8047B70478840004080B400AF054B1B78DBB203F00703DBB21846BD465DF8047B704700BF8A40004000000000EA
:402DC0000230800803D000BF01380046FCD17047EFF3108072B6704780F31088704700BF80B483B000AF134B7F221A70124B80221A707F23FB710CE0FB79DB0003F180438A
:402E000003F5F043FA79013AD2B21A70FB79013BFB71FB79002BEFD1FB79DB0003F1804303F5F04300221A700C37BD465DF8047B704700BF2181FF1F2081FF1F80B485B0DB
:402E400000AF03460A46FB711346BB710123FB60FB79172B2FD8BB79002B0ED0FB791A01184B1344FA791101164A0A441278D2B242F02002D2B21A700DE0FB791A01114BDC
:402E80001344FA7911010F4A0A441278D2B222F02002D2B21A70FB791A010A4B1344FA791101084A0A441278D2B242F00102D2B21A700023FB60FB6818461437BD465DF8AC
:402EC000047B70471070004080B485B000AF0346FB710123FB60FB79172B1DD8FB791A01114B1344FA7911010F4A0A441278D2B222F00102D2B21A70FB791A010A4B13440B
:402F0000FA791101084A0A441278D2B222F02002D2B21A700023FB60FB6818461437BD465DF8047B704700BF1070004080B485B000AF0346FB710123FB60FB79172B1DD88E
:402F4000FB791A01114B1344FA7911010F4A0A441279D2B242F00402D2B21A71FB791A010A4B1344FA791101084A0A441278D2B242F00102D2B21A700023FB60FB6818469D
:402F80001437BD465DF8047B704700BF1070004080B485B000AF03460A46FB711346BB710123FB60FB79172B18D8FB791A010F4B13441B78DBB223F00E03FB72FB791A0172
:402FC0000A4B1344BA7902F00702D2B25200D1B2FA7A0A43D2B21A700023FB60FB6818461437BD465DF8047B704700BF1070004080B485B000AF0346FB710B46BB80134686
:403000007B800123FB60BB8841F6FF72934202D14FF40053BB807B8841F6FF72934202D14FF400537B80FB79172B17D8FB79DB0003F1804303F5EC430433BB60BB68BA8845
:403040001A80FB79DB0003F1804303F5EC430633BB60BB687A881A800023FB60FB6818461437BD465DF8047B704700BF80B485B000AF03460A46FB711346BB710123FB607E
:40308000FB79172B07D8FB791A01064B1344BA795A720023FB60FB6818461437BD465DF8047B70471070004080B485B000AF03460A46FB711346BB710123FB60FB79172B96
:4030C00014D8FB791A010D4B1344FA7911010B4A0A441279D2B2D1B2BA7902F00702D2B20A43D2B2D2B21A710023FB60FB6818461437BD465DF8047B704700BF10700040C3
:4031000090B484B000AF0446084611461A462346FB710346BB710B467B7113463B710123FB60FB79172B34D8FB79DB0003F1804303F5EC43BA7902F07F02D1B27A79D20130
:40314000D2B20A43D2B21A70FB79DB0003F1804303F5EC433A7E1201D1B23A7902F00F02D2B20A43D2B25A70FB79DB0003F1804303F5EC433A7F02F00F02D2B29A70FB7935
:40318000DB0003F1804303F5EC430022DA700023FB60FB6818461037BD4690BC704700BF80B582B000AFFF23FB71FFF711FE0346BB71104B1B78182B12D90F4B1B78FB710C
:4031C0000C4B1B78013BDAB20A4B1A70FB79DB0003F1804303F5F0431B78DAB2064B1A70BB791846FFF7F8FDFB7918460837BD4680BD00BF2081FF1F2181FF1F80B584B09E
:4032000000AF0346FB71FB795BB2002B19DBFFF7DFFD0346FB73FB79DB0003F1804303F5F043094A12781A70074AFB791370074B1B780133DAB2054B1A70FB7B1846FFF7D8
:40324000CBFD1037BD4680BD2181FF1F2081FF1F90B484B000AF0446084611461A462346FB710346BB800B46BB711346FB700123FB60FB795BB2002B23DBBB8823F47F630B
:4032800023F00F039BB2002B1BD1FB79DB0003F1804303F5F043BB60BB68BA881A80FB79DB0003F1804303F5F043BA799A70FB79DB0003F1804303F5F043FA78DA700023BC
:4032C000FB60FB6818461037BD4690BC704700BF80B485B000AF0346FB710B46BB8013467B800123FB60FB795BB2002B17DBFB79DB0003F1804303F5F0430433BB60BB6836
:40330000BA881A80FB79DB0003F1804303F5F0430633BB60BB687A881A800023FB60FB6818461437BD465DF8047B704780B584B000AF0346FB710023FB60234A224B1B789D
:40334000DBB243F00103DBB21370FB79002B36D01E4B1B78DBB203F00403FB721C4B1B78BB721C4B1B787B72182001F0EDF81023FB6010E0184B1B78DBB203F00103002BA5
:4033800009D0154B1B78DBB203F00103002B02D00023FB6008E0012001F0AAF8034603F00103DBB2002BE5D0FB7A002B01D100F083FB074ABB7A1370064A7B7A1370FB68E5
:4033C00018461037BD4680BD204200400043004080430040824300402542004080B400AF054A054B1B78DBB223F00103DBB21370BD465DF8047B70472042004080B582B0B4
:4034000000AF0346FB71114B1B78DBB203F00103002B02D0002000F0D7FBFB790033022B0DD84FF040214FF040231B78DBB223F00303DAB2FB791343DBB20B7003E0002041
:4034400000F0C2FB00BF0837BD4680BD2042004080B584B000AF0346FB711D4A1C4B1B78DBB243F01003DBB213701A4A194B1B78DBB243F01003DBB21370FB79002B23D0DE
:40348000154B1B78DBB203F00403FB73134B1B78BB73134B1B787B73002001F055F800BF012001F025F8034603F00103DBB2002BF6D0FB7B002B01D100F0FEFA074ABB7B3A
:4034C0001370074A7B7B13701037BD4680BD00BFA0430040B043004000430040804300408243004080B400AF094A094B1B78DBB223F01003DBB21370064A064B1B78DBB2B7
:4035000023F01003DBB21370BD465DF8047B7047A0430040B043004080B483B000AF0023FB71124B1B78DBB203F00703002B06D10F4B1B78DBB203F00103002B0DD10B4B80
:403540001B78DBB203F00703012B08D1094B1B78DBB203F00103002B01D00123FB71FB7918460C37BD465DF8047B704793430040A5430040B543004080B584B000AF0346B8
:40358000FB71FFF7C9FF0346FB73FB7B012B07D1314A314B1B78DBB223F00203DBB21370FB79082B50D801A252F823F0D1350000DD350000E9350000F5350000013600000B
:4035C0000D360000193600004936000025360000224B234A1278D2B21A7039E01F4B214A1278D2B21A7033E01C4B1F4A1278D2B21A702DE0194B1D4A1278D2B21A7027E075
:40360000164B1B4A1278D2B21A7021E0134B194A1278D2B21A701BE0104B174A1278D2B21A7015E00D4B154A1278D2B21A70FB7B012B08D1084A084B1B78DBB243F00203C7
:40364000DBB2137004E003E0002000F0BDFA00BF1037BD4680BD00BF09600040A146004008010049090100490A0100490B010049890100490C0100490D0100490F010049B0
:4036800080B584B000AF0346FB71674B1B78DBB203F00703FB73FB79082B01D0FB7900E00323BB73FB7B062B25D801A252F823F0CD360000D3360000D9360000DF3600000C
:4036C000E5360000EB360000F13600000223FB7315E00123FB7312E00323FB730FE00023FB730CE00423FB7309E00523FB7306E00623FB7303E0002000F066FA00BFBA7B83
:40370000FB7B9A4203D3FB791846FFF735FFFB79082B72D801A252F823F000BF413700005937000071370000833700009B370000B3370000CB370000FB370000E337000041
:40374000394A394B1B78DBB223F04703DBB243F00303DBB2137054E0334A334B1B78DBB223F04703DBB243F00103DBB2137048E02D4A2D4B1B78DBB223F04703DBB21370CB
:403780003FE0294A284B1B78DBB223F04703DBB243F00203DBB2137033E0234A224B1B78DBB223F04703DBB243F00403DBB2137027E01D4A1C4B1B78DBB223F04703DBB292
:4037C00043F00503DBB213701BE0174A164B1B78DBB223F04703DBB243F00603DBB213700FE0114A104B1B78DBB223F04703DBB243F04203DBB2137003E0002000F0E4F964
:4038000000BFFB79082B02D100F056F801E000F063F8BA7BFB7B9A4203D2FB791846FFF7ABFE1037BD4680BD0042004080B582B000AF0346FB71FB79012B17D0022B02D0BE
:40384000002B26D02EE04FF040224FF040231B78DBB223F04003DBB21370164A154B1B78DBB243F02003DBB213701FE04FF040224FF040231B78DBB243F04003DBB2137022
:403880000C4A0C4B1B78DBB243F02003DBB213700CE0084A074B1B78DBB223F02003DBB2137003E0002000F08FF900BF0837BD4680BD00BF0042004080B400AF054A054B63
:4038C0001B78DBB243F01003DBB21370BD465DF8047B70470042004080B400AF054A054B1B78DBB223F01003DBB21370BD465DF8047B70470042004080B483B000AF0346FB
:40390000FB710949084B1B78DBB223F00303DAB2FB7903F00303DBB21343DBB20B700C37BD465DF8047B70470540004080B483B000AF0346FB71044AFB7913700C37BD46AD
:403940005DF8047B704700BF0440004080B483B000AF0346FB80154A144B1B78DBB223F00F03DBB21370124B00221A70114A114B1B78DBB263F07F03DBB213700E4BFA88EC
:40398000D2B21A700D4AFB881B0A9BB2DBB213700B4A0B4B1B78DBB243F00103DBB213700C37BD465DF8047B704700BF14400040104000400840004002400040034000404A
:4039C0000140004080B584B000AF0346FB80FFF7FFF90346FB73244B1B78DBB29BB21B02BB81224B1B78DBB29AB2BB891343BB81FB88002B02D0BB89002B29D11C4B1B78FE
:403A0000FB72FB7A062B02D80720FFF78FFFFB88002B0CD1174A174B1B78DBB243F04003DBB21370FB881846FFF790FF0BE0FB881846FFF78BFF0F4A0E4B1B78DBB223F063
:403A40004003DBB21370FB7A1846FFF76FFF03E0FB881846FFF77AFFFB7B1846FFF7BCF91037BD4680BD00BF0740004006400040044000400840004080B400AF054A054B29
:403A80001B78DBB243F00203DBB21370BD465DF8047B70470043004080B400AF054A054B1B78DBB243F00403DBB21370BD465DF8047B70470043004080B400AF054A054B0E
:403AC0001B78DBB223F00403DBB21370BD465DF8047B70470043004080B586B000AF0346FB7100237B61FB793B742B4A2A4B1B78DBB243F00103DBB21370FB79002B46D074
:403B0000264B1B78FB74264B1B78BB74254B1B787B74182000F018FD10237B6126E01E4B1B780423FB730EE000BF012000F0E0FC034603F00103DBB2002BF6D0FB7BDBB2AF
:403B4000013BDBB2FB73FB7BDBB2002BECD1124B1B78DBB2DBB25BB2002B02DB00237B6108E03B7CDBB2013BDBB23B743B7CDBB2002BD4D1FB7C03F00403002B01D1FFF7E9
:403B80009BFF074ABB7C1370064A7B7C13707B6918461837BD4680BD1042004000430040804300408243004080B400AF054A054B1B78DBB223F00103DBB21370BD465DF887
:403BC000047B70471042004080B483B000AF0346FB7101BE0C37BD465DF8047B704700BF80B582B000AF786008E00C4B1B681846FFF7E6F87B68A3F500437B607B68B3F5DD
:403C0000004FF2D8064B1B687A6802FB03F31846FFF7D6F80837BD4680BD00BF3481FF1F2C81FF1F80B582B000AF0346FB80FB88044A127802FB03F31846FFF7C1F8083750
:403C4000BD4680BD3081FF1F80B483B000AF78607B68002B03D0144A7B68136002E0124B124A1A60104B1B6803F5742303F23F230F4AA2FB03239B0CDAB20E4B1A700A4B52
:403C80001B6803F2E7330C4AA2FB03239B090B4A13600A4B1B68DB03094A13600C37BD465DF8047B704700BF2881FF1F40A5AE0283DE1B433081FF1FD34D62102C81FF1F9A
:403CC0003481FF1F80B483B000AF03460A46FB711346BB711D491D4B1B78DBB223F00303DAB2FB7903F00303DBB21343DBB20B70164A164B1B78DBB263F07F03DBB21370A0
:403D0000124A124B1B78DBB203F07F03DBB213700E49BB795B01DBB203F06003DAB20B4B1B78DBB223F06003DBB21343DBB20B70064A064B1B78DBB243F01003DBB21370E1
:403D40000C37BD465DF8047B704700BF8343004080B400AF034B01221A70BD465DF8047B704700BF8443004080B584B000AF03463960FB710F4B1B68FB60FB791F2B02D944
:403D80000020FFF721FFFB7903F01F0310339B00FA6813441B68BB60FB7903F01F0310339B00FA6813443A681A60BB6818461037BD4680BD08ED00E080B582B000AF034697
:403DC0000A46FB711346BB71BB79072B02D90020FFF7FAFEFB791F2B02D90020FFF7F4FEFB7903F01F0303F1604303F56443BA795201D2B21A700837BD4680BD80B500AFDC
:403E0000914B1B78DBB203F00F03DAB28F4B1A708F4B1B78DAB28D4B5A708B4A8A4B1B78DBB223F00F03DBB21370894B1B78884B00221A70874B1B78DBB223F03F03DAB23E
:403E4000824B5A71372004F05BF8834B1B78DBB203F00703DAB27D4BDA707F4B1B78DBB203F04003DAB2794B1A717B4B1B78DBB203F01003002B03D0744B01225A7202E00E
:403E8000724B00225A72754B1B78DBB203F00303DAB26E4B9A706D4B9B78012B1CD14FF040231B78DBB203F00303012B08D0012B02D3022B08D00BE00020FFF71DFD0BE080
:403EC0000220FFF719FD07E00320FFF715FD03E00020FFF779FE00BF614B1B78DBB203F00103002B05D0594B01229A73FFF776FA02E0564B00229A730420FFF7C1FB594B2A
:403F00001B78DBB203F01003DBB2002B03D04F4B01229A7108E04D4B00229A710020FFF797FA0620FFF77EFE4B4B1B78DBB203F02003002B10D04FF040231B78DBB203F090
:403F40004003002B01D1022200E001223F4BDA710020FFF76BFC02E03C4B0022DA714FF040231B78DBB203F03003DAB2374B1A72364B1B7A002B09D04FF040224FF04023D3
:403F80001B78DBB223F03003DBB21370324B1B78DBB203F01003002B01D0FFF79DFC324B1B78DAB2294B9A72284B9B7A002B02D00020FFF7BBFC254B9B78002B02D000204F
:403FC000FFF79AFC294B1B78DBB29BB21B029AB21E4B9A81264B1B78D9B21C4B9A898BB213439AB2194B9A81184B9B89002B02D00020FFF7E7FC184B1B78DBB203F00703F3
:404000001C4AD35C184603F07BFF1B4B1B78DBB203F00103002B05D00C4B0122DA73FFF7C3FD02E0094B0022DA73144B1B78DBB203F00403002B03D0044B01221A7402E028
:40404000024B00221A7480BDA1430040E881FF1FA243004000480040004200400540004020420040A043004004400040074000400640004080860000104200400B4000402E
:4040800080B586B000AF10233B617D4A3B1D106818609188927999809A717A4B1B7C012B17D1794B1B78DBB203F00703774AD35C1A4613469B0013441A01D31A1846FEF779
:4040C0007FFE734A724B1B78DBB243F00403DBB213706C4BDB7B012B26D10020FFF7FCFC6C4B1B780523FB821BE0674B1B78DBB203F00703654AD35C1A46C82303FB02F34C
:404100001846FEF75DFE634B1B78DBB2DBB25BB2002B03DB00233B6100BF05E0FB8A013BFB82FB8A002BE0D1372003F0E9FE554B9B78022B03D0534B9B78032B10D1564B19
:404140001B78DAB24F4B9B7A9A4204D04D4B9B7A1846FFF7EBFB4B4B9B781846FFF7CCFB484B1B7903F04003002B0CD0454BDB7807F11802134413F8143C032B03D10820E1
:40418000FFF77EFA20E03F4BDB7807F11802134413F8143C1846FFF773FA3A4B1B7903F04003002B08D0384A374B1B78DBB243F04003DBB2137007E0334A334B1B78DBB231
:4041C00023F04003DBB213702E4B9B79012B0AD1324B1B78DBB203F01003DBB2002B02D10020FFF735F9274BDB791846FFF71EFB244B5B7A012B01D1FFF75EFB214B1B7A8E
:404200001A464FF040231B78DBB203F030039A4210D04FF040234FF040221278D2B2D2B222F03002D1B2174A127AD2B20A43D2B2D2B21A70134B9B7B012B39D110233B6115
:404240000020FFF773F85020FFF7ECFC144B1B78AB23FB8229E00120FFF7E4FC104B1B78DBB203F00103002B1CD00D4B1B78DBB203F00103002B15D000233B6100BF17E0B5
:4042800088860000E881FF1F00420040808600000B4000401042004004400040A043004025420040FB8A013BFB82FB8A002BD2D12B4B9B78002B03D0294B9B78012B10D1CA
:4042C000284B1B78DAB2264B9B7A9A4204D0244B9B7A1846FFF72AFB214B9B781846FFF70BFB1F4B9B79002B09D11F4B1B78DBB203F01003DBB2002B01D0FFF7F3F81B4B3D
:404300001B78DBB29BB21B02FB81194B1B78DBB29AB2FB891343FB81114B9B89FA899A4204D00F4B9B891846FFF74CFB114B114A1278D2B2D2B202F03F02D1B2084A527969
:40434000D2B20A43D2B2D2B21A700B4B044A12781A700A4B024A52781A701837BD4680BDE881FF1F04400040A0430040074000400640004000480040A1430040A243004092
:4043800080B584B000AF03460A46FB711346BB80FEF71EFD0346FB734E4B1B78DBB203F00803002B0BD14C4A4B4B1B78DBB203F01F03DBB21370FB79002B08D004E0FB7B85
:4043C0001846FEF709FD81E00020FFF7FDFB00F003F9424B1B78DAB2414B1A713F4ABB881B099BB2DBB213703E4B1B78DAB23C4B5A713C4ABB88DBB203F00F03DBB2137094
:40440000394B1B78DAB2364B9A71374ABB881B0B9BB2DBB203F00103DBB21370334B1B78DBB203F00703002B04D12D4B012283F82D2014E02A4B002283F82D202B4B1B7828
:40444000DBB203F00703DAB2254B83F82C20274A264B1B78DBB223F00703DBB213701D4A1C4B1B78DBB223F00703DBB243F00303DBB21370174B1B7800BF00BF30BF184B1A
:4044800093F82D30012B0FD0184B184A1278D2B2D2B222F00702D1B2114A92F82C20D2B20A43D2B2D2B21A7000F0D6F90B4B0C4A12791A700B4B0A4A52791A700A4B084A5A
:4044C00092791A70FB7B1846FEF786FC1037BD4680BD00BF934300408346004098430040B881FF1F994300409A4300400042004080B584B000AF0346FB71FEF769FC0346DA
:40450000FB730F4B1B78DAB20E4B1B781343DAB20C4B1A700B4B1B78BB73FB79DB43DAB2084B1B781340DAB2064B1A70FB7B1846FEF752FCBB7B18461037BD4680BD00BF1F
:4045400090430040FA81FF1F80B582B000AF0346FB711F4A1E4B1B78DBB223F00203DBB21370FFF799FA1A4B1B78DBB203F00103002B19D0174B1B78DBB2FA799A4224D0CC
:40458000134A134B1B78DBB223F00103DBB21370104AFB7913700E4A0D4B1B78DBB243F00103DBB2137010E00A4B1B78DBB2FA799A4202D0074AFB791370054A044B1B7892
:4045C000DBB243F00103DBB213700837BD4680BD824300408043004080B400AF804B1B78DAB2804B5A72804B1B78DAB27D4B9A727E4B1B78DAB27B4BDA727D4B1B78DAB25D
:40460000784B1A737B4B1B78DAB2764B5A737A4B1B78DAB2734B9A73784B1B78DAB2714BDA73774B1B78DAB26E4B1A74754B1B78DAB26C4B5A74744B1B78DAB2694B9A74F1
:40464000724B1B78DAB2674BDA74714B1B78DAB2644B1A756F4B1B78DAB2624B5A756E4B1B78DAB25F4B9A756C4B1B78DAB25D4BDA756B4B1B78DAB25A4B1A76694B1B7841
:40468000DAB2584B5A76684B1B78DAB2554B9A76664B1B78DAB2534BDA76654B1B78DAB2504B1A77634B1B78DAB24E4B5A77624B1B78DAB24B4B9A77604B1B78DAB2494BB8
:4046C000DA775F4B1B78DAB2464B83F820205D4B1B78DAB2434B83F821205B4B1B78DAB2404B83F82220594B1B78DAB23D4B83F82320574B1B78DAB23A4B83F82420384BA5
:4047000000221A70384B00221A70384B00221A70374B00221A70374B00221A70364B00221A70364B00221A70354B00221A70354B00221A70344B00221A70344B00221A700B
:40474000334B00221A70334B00221A70324B00221A70324B00221A70314B00221A70314B00221A70304B00221A70304B00221A702F4B00221A702F4B00221A702E4B00220E
:404780001A702E4B00221A702D4B00221A702D4B00221A702C4B00221A702C4B00221A702B4B00221A702B4B1B78DBB203F00803002B0CD00B4B012283F82E20254A254BDE
:4047C0001B78DBB223F00803DBB2137003E0054B002283F82E20BD465DF8047B704700BF005A0040B881FF1F025A0040035A0040045A0040065A0040085A00400A5A004052
:40480000105A0040125A0040135A0040145A0040165A0040185A00401A5A0040205A0040225A0040235A0040245A0040265A0040285A00402A5A0040305A0040325A0040E4
:40484000335A0040345A0040365A0040385A00403A5A00402243004080B400AF424B434A527A1A70424B414A927A1A70414B3F4AD27A1A70404B3D4A127B1A703F4B3B4A5E
:40488000527B1A703E4B394A927B1A703D4B374AD27B1A703C4B354A127C1A703B4B334A527C1A703A4B314A927C1A70394B2F4AD27C1A70384B2D4A127D1A70374B2B4A2E
:4048C000527D1A70364B294A927D1A70354B274AD27D1A70344B254A127E1A70334B234A527E1A70324B214A927E1A70314B1F4AD27E1A70304B1D4A127F1A702F4B1B4A9E
:40490000527F1A702E4B194A927F1A702D4B174AD27F1A702C4B154A92F820201A702B4B124A92F821201A70294B104A92F822201A70284B0D4A92F823201A70264B0B4A95
:4049400092F824201A70094B93F82E30012B07D1224A224B1B78DBB243F00803DBB21370BD465DF8047B7047005A0040B881FF1F025A0040035A0040045A0040065A004061
:40498000085A00400A5A0040105A0040125A0040135A0040145A0040165A0040185A00401A5A0040205A0040225A0040235A0040245A0040265A0040285A00402A5A0040B3
:4049C000305A0040325A0040335A0040345A0040365A0040385A00403A5A00402243004080B485B000AF0346FB710B4B1B78DBB223F01003FB730849FB791B01DBB203F033
:404A00001003DAB2FB7B1343DBB20B701437BD465DF8047B704700BF2051004080B400AF054B1B78DBB203F010031B09DBB21846BD465DF8047B70472151004080B582B0AB
:404A400000AF03460A46FB711346BB71084B1B78002B04D100F00EF8054B01221A70FA79BB791046194600F0EFF80837BD4680BDFC81FF1F80B582B000AFFEF7A9F90346E1
:404A80007B715E4A5D4B1B78DBB243F00103DBB213705B4A5A4B1B78DBB243F00103DBB21370584B01221A70574B02221A70574A564B1B78DBB203F07F03DBB213700020FB
:404AC000FFF7B0F8524A524B1B78DBB223F00603DBB213704F4A4F4B1B78DBB223F02003DBB213704A4A4A4B1B78DBB243F00103DBB213700120FFF795F82820FFF792F8FE
:404B0000454A454B1B78DBB203F07F03DBB21370414A414B1B78DBB223F04003DBB213703B4A3B4B1B78DBB243F00203DBB213700220FFF777F8364A354B1B78DBB243F0C7
:404B40000403DBB21370354B00221A70344B00221A700023FB8006E0FB88324AFF21D154FB880133FB80FB88082BF5D97B791846FEF732F917202C49FFF7F6F817200721E8
:404B8000FFF71AF915202949FFF7EEF815200721FFF712F918202649FFF7E6F818200721FFF70AF900202349FFF7DEF800200721FFF702F901202049FFF7D6F8012007210F
:404BC000FFF7FAF802201D49FFF7CEF802200721FFF7F2F803201A49FFF7C6F803200721FFF7EAF816201749FFF7BEF816200021FFF7E2F80837BD4680BD00BFA543004033
:404C0000B54300409D60004009600040106000409443004012600040F85100408460004085600040A48BFF1FC15D0000B55D00001D5600005D5C0000AD5C0000FD5C000000
:404C4000595D0000CD5D000080B584B000AF03460A46FB711346BB710023FB7306E0FB7B2F4A0121D154FB7B0133FB73FB7B032BF5D92C4B4FF400021A602A4B4FF080729F
:404C80001A60284B01221A60264B02221A60254B04221A60234B08221A60234B2B221A70204B4FF480021A60204B50221A70204B00221A70BB79002B02D0012B04D007E0B4
:404CC0001C4B02221A7007E01A4B03221A7003E0184B02221A7000BF174AFB791370174B00221A70164B00221A70164B00221A70154B00221A70154B00221A70144B0022D8
:404D00001A70144B03221A70134B80221A700120FEF756F8114B04221A701037BD4680BD848CFF1F00E100E09E6000409C600040FE8BFF1F09600040F88BFF1FFD8BFF1F5A
:404D4000F98BFF1FFC8BFF1FE48BFF1FFB8BFF1F788CFF1F28600040086000401260004080B483B000AF0023FB7106E0FB79144A0121D154FB790133FB71FB79032BF5D94F
:404D8000104B00221A70104B00221A700F4B00221A700F4B00221A700E4B00221A700E4B00221A700D4B00221A700D4B03221A700C4B80221A700C37BD465DF8047B704770
:404DC000848CFF1FFE8BFF1FFD8BFF1FF98BFF1FFC8BFF1FE48BFF1FFB8BFF1F788CFF1F286000400860004080B483B000AF0A4B1B78FB71084AFB7923F00403DBB21370D4
:404E0000FB7903F004039B08DBB218460C37BD465DF8047B704700BF0960004080B400AF034B1B78DBB21846BD465DF8047B7047FD8BFF1F80B483B000AF0023FB71094B61
:404E40001B78DBB2002B05D0064B1B78FB71054B00221A70FB7918460C37BD465DF8047B704700BFFC8BFF1F80B483B000AF0346FB71FB79044AD35CDBB218460C37BD46D2
:404E80005DF8047B704700BFE88BFF1F80B483B000AF0346FB71FA79064913465B0013449B000B445B78DBB218460C37BD465DF8047B7047088CFF1F80B485B000AF0346F3
:404EC000FB710023FB81FB79002B1CD0FB79082B19D8FB79013BDBB21B017B737A7B0D4B13441B78DBB29BB203F007039BB21B029AB2797B084B0B441B78DBB29BB2134320
:404F00009BB2023BFB81FB8918461437BD465DF8047B70470C6000400D60004090B585B000AF03463960FB71FA79394913465B0013449B000B441B79DBB2DBB25BB2002B10
:404F400006DA3B681B0CFB814FF48043BB8105E04FF48043FB813B681B0CBB81FB79013B072B43D801A252F823F000BF8D4F0000A54F0000ED4F0000BD4F0000ED4F00004C
:404F8000D54F0000ED4F0000ED4F0000FC79FA89BB892020012102F0EFF903461A461D4B1A5524E0FC79FA89BB892020012102F017FA03461A46174B1A5518E0FC79FA894E
:404FC000BB892020012102F03FFA03461A46114B1A550CE0FC79FA89BB892020012102F067FA03461A460B4B1A5500E000BFFB79002B09D0FB79082B06D8FC79FEF7D0F853
:4050000003461A46044B1A551437BD4690BD00BF088CFF1F988BFF1FA48BFF1F80B584B000AF0346FB71FB79082B01D8FB7900E00123FB73FB7B104AD35CFF2B0FD0FB7BBE
:405040000E4AD35C1846FDF73FFFFB7B0A4AD35C1846FEF7D3F8FB7B074AFF21D154FB7B0133FB73FB7B082B02D8FB79092BE1D01037BD4680BD00BFA48BFF1F988BFF1F2E
:4050800090B585B000AF03463960FB711346BB80FB79002B00F09480FB79082B00F29080FB79013BDBB21B01FB73FA7B464B1344BB60FB7B454A1A44BB881B0A9BB2D8B2B8
:4050C000F979434C0B465B000B449B002344DB78DBB20343DBB21370FA7B3E4B1344BA88D2B21A70FB793C4AD35CFF2B04D1FB7918463968FFF712FF3B68002B36D0FB79ED
:40510000364AD35C1846FDF7DFFEFB79324AD15CFB79314AD35CBA88084611461A461123FEF796F8FB792C4AD15C3B689AB2BB689BB2084611461A46FEF7CAF8FB79274A41
:40514000D35C1846FDF7F2FEFB79244AD15CFB79214AD35C08461946FDF788FFFB791F4AD35C18460121FDF769FE29E0FA79184913465B0013449B000B4400225A70BB8891
:40518000002B10D0FB7B03F1804303F5C143FA7B02F1804202F5C1421278D2B242F00102D2B21A700CE0FB7B0D4A1A44F97908480B465B000B449B0003445B79DBB21370AC
:4051C0001437BD4690BD00BF886000400C600040088CFF1F0D600040A48BFF1F988BFF1F0E60004080B584B000AF03463960FB711346BB80FB79002B4FD0FB79082B4CD863
:405200003B68002B49D0FB79013BDBB21B01FB73FA7B254B1344BB60FB79244AD35CFF2B04D1FB7918463968FFF778FEFB79204AD35C1846FDF748FEFB791C4AD15CFB795A
:405240001A4AD35CBA88084611461A461223FDF7FFFFFB79154AD15CBB689AB23B689BB2084611461A46FEF733F8FB79104AD35C1846FDF75BFEFB790D4AD15CFB790B4A40
:40528000D35C08461946FDF7F1FEFB79084AD35C18460121FDF7D2FD01E00023BB80BB8818461037BD4680BD88600040A48BFF1F988BFF1F80B485B000AF0346FB71FB7999
:4052C000002B1DD0FB79082B1AD8FB79013BDBB21B01FB73FA790D4913465B0013449B000B4400225A70FB7B094A1A44F97907480B465B000B449B0003445B79DBB21370E3
:405300001437BD465DF8047B704700BF088CFF1F0E60004080B582B000AF0023FB719F4B1B78DBB203F07F03BB719D4B1B78DBB2DBB25BB2002B80F2B880994B1B78DBB2AA
:4053400003F00303022B1CD1964B1B78DBB2812B00D015E0944B1B78DBB2012B0FD1934B03221A80BA7913465B001344904A13448E4A536000F0D4FA0346FB71FFE700BFEE
:4053800040E1874B1B78DBB203F00303012B40F03981844B1B78DBB2832B5BD0832B04DC812B07D0822B44D07EE0842B63D0FF2B72D079E07C4B1B78DBB2012B0AD17B4B78
:4053C00001221A80794B7B4A5A6000F0A9FA0346FB712DE0744B1B78DBB2022B28D1734B02221A80744B1B78DBB2022B17D0062B19D16E4B714A5A60714B1B78DBB2012B93
:4054000003D16A4B6F4A5A6008E06D4B1B78DBB2022B03D1654B6C4A5A6004E003E0634B6A4A5A6000BF00F07BFA0346FB713BE03AE05D4B1B78DBB2022B0AD15B4B022204
:405440001A805A4B624A5A6000F06AFA0346FB712AE029E0544B1B78DBB2022B0AD1534B02221A80514B5B4A5A6000F059FA0346FB7119E018E04C4B1B78DBB2022B0AD1A5
:405480004A4B02221A80494B534A5A6000F048FA0346FB7108E007E0444B00221A8000F0C1FA0346FB7100BFACE03D4B1B78DBB2DBB25BB2002BC0F2A580394B1B78DBB21A
:4054C00003F00303022B1FD1364B1B78DBB2012B00D018E0344B1B78DBB2012B12D1334B03221A80BA7913465B001344304A13442E4A536000F096FA0346FB71374ABB79F2
:405500001370FFE700BF7DE0254B1B78DBB203F00303012B76D1234B1B78DBB2012B00D070E0214B1B78DBB2012B17D11F4B01221A80214B1B78DBB2022B02D0062B04D0B9
:4055400007E01A4B1B4A5A6003E0184B244A5A6000BF00F067FA0346FB7153E0124B1B78DBB2022B4DD1114B02221A80124B1B78DBB2022B02D0062B04D03DE00B4B134A27
:405580005A6039E0094B0D4A5A600D4B1B78DBB2012B27D1054B0B4A5A602CE004600040006000400160004003600040EC8BFF1FC48BFF1FE28BFF1F05600040C08BFF1F89
:4055C00002600040B88BFF1FE08BFF1FBC8BFF1F3881FF1F3C81FF1F4081FF1FDF8BFF1FB28BFF1F0A4B1B78DBB2022B03D1094B094A5A60FFE700BF00F014FA0346FB7117
:4056000000E000BFFB7918460837BD4680BD00BF02600040EC8BFF1FE08BFF1F80B582B000AF374B1B78BB71BB7903F01003002B63D00123FB71BB795BB2002B13DABB79EF
:4056400003F00F03012B02D00023FB711DE000F061F82C4B1B78DBB2DBB25BB2002B14DA0023FB7111E0BB7903F04003002B02D000F094F809E0BB7903F02003002B02D075
:4056800000F0B2F801E00023FB71FB79002B34D01B4B1B78BB71BB795BB2002B2DDB1A4B1B78DAB2194B1B78DBB21343BB71184ABB791370164B1B78DBB2BA799A421CD184
:4056C000104B1B78FB710E4B1B78DBB223F07F03BB71BB79002B0AD1094B0A4A1278D2B21A70074B1B78DBB203F00F03FB71054B1B78DBB2FA799A42E2D10837BD4680BDC8
:4057000028600040E58BFF1FFA8BFF1F798CFF1F2960004080B582B000AF1D4B1B78FB711B4AFB7913701A4B1B78FB71FB795BB2002B03DA174AFB79137025E0022000F04F
:4057400053FA154B1B78DBB203F06003202B08D0402B0BD0002B0ED100F0C4FE0346FB710CE002F015FC0346FB7107E001F0E6FD0346FB7102E00023FB7100BFFB79002B49
:4057800002D1044B03221A700837BD4680BD00BF28600040E58BFF1F0060004080B500AF104B1B78DBB2062B19D801A252F823F0DF570000DF570000CD570000DF5700009D
:4057C000D3570000DF570000D957000000F004F906E000F0B9F903E000F0E2F900E000BF80BD00BFFE8BFF1F80B500AF124B1B78DBB2062B1DD801A252F823F033580000A2
:405800003358000019580000335800001F580000335800002558000000F0E4F80AE000F035F907E0032000F0DFF9044B03221A7000E000BF80BD00BFFE8BFF1FE58BFF1FEE
:4058400080B400AF2F4B1B78DBB29AB22E4B1B889BB213449AB22C4B1A802C4B00221A701CE02A4B1B78DBB203F1804303F5C043274A5268511C264841601278D2B21A709D
:40588000224B1B78DBB20133DAB2204B1A70204B1B889BB2013B9AB21D4B1A801C4B1B889BB2002B04D0194B1B78DBB2072BD8D9164B1B78DBB2002B04D1124B1B78DBB206
:4058C000082B0FD1134B1B78DBB283F07F03DB43DAB2104B1A70104B0F221A700F4B02221A7005E00C4B02221A700C4B02221A70064B1B78DAB2034B1A70BD465DF8047B67
:40590000704700BF788CFF1F7A8CFF1F798CFF1FEC8BFF1FFA8BFF1FE58BFF1FFE8BFF1F80B582B000AF164B1B889BB2002B02D100F030F81EE0134B02221A70124B002215
:405940001A7000F071F9114B1B78DBB21B029AB20F4B1B78DBB29BB213439BB2FB80084B1B889BB2FA889A4202D2054AFB881380FFF766FF012318460837BD4680BD00BF84
:40598000EC8BFF1FFE8BFF1FFA8BFF1F076000400660004080B400AF0A4B02221A700A4B80221A70094B0F221A70094B00221A70084B00221A7001231846BD465DF8047BED
:4059C000704700BFFE8BFF1FFA8BFF1FE58BFF1F788CFF1F798CFF1F80B500AFFFF730FF80BD00BF80B500AF0A4B1B78DBB29AB2094B1B889BB213449AB2074B1A80074B45
:405A000000221A70012000F0EFF8054B03221A7080BD00BF788CFF1F7A8CFF1FFE8BFF1FE58BFF1F80B582B000AF124B04221A70114B80221A7000F0F7F8104B1B78DBB247
:405A40001B029AB20E4B1B78DBB29BB213439BB2FB800C4B1B889BB2FA889A4202D2094AFB881380084B0B221A70012318460837BD4680BDFE8BFF1FFA8BFF1F07600040FB
:405A800006600040EC8BFF1FE58BFF1F80B483B000AF264B7B60264B1B78DBB203F00F03DBB2023BDAB2234B1A70224B1B78DBB29AB2214B1B889BB213449AB21E4B1A80FC
:405AC00018E01E4B5B685A1C1C494A607A68511C79601278D2B21A70164B1B78DBB2013BDAB2144B1A70154B1B889BB2013B9AB2124B1A80114B1B889BB2002B04D00D4B99
:405B00001B78DBB2002BDCD10D4B1B78DBB283F07F03DB43DAB20A4B1A700A4B0B221A700C37BD465DF8047B704700BF0060004029600040798CFF1F7A8CFF1FEC8BFF1F96
:405B4000FA8BFF1FE58BFF1F80B500AF044B00221A70012000F048F8024B03221A7080BDFE8BFF1FE58BFF1F80B400AF084B06221A70084B06221A70074B80221A70074B99
:405B800000221A7001231846BD465DF8047B7047FE8BFF1FE58BFF1FFA8BFF1F798CFF1F80B500AF0C4B1B78DBB2002B0AD00B4A094B1B78DBB263F07F03DBB21370064BCF
:405BC00000221A70064B00221A70012000F00CF8044B03221A7080BDE48BFF1F08600040FE8BFF1FE58BFF1F80B483B000AF0346FB710B4B9B68002B0CD0094B9B68FA794D
:405C00001A70074B9B68074A128892B25A80044B00229A600C37BD465DF8047B704700BFEC8BFF1F7A8CFF1F80B400AF094B00221A80094B9B68002B07D0074B9B68002205
:405C40001A70054B9B6800225A80BD465DF8047B704700BF7A8CFF1FEC8BFF1F80B500AFFAF74AFD0E4B1B780E4B1B7BDBB203F00303012B08D00B4BDB7BDBB283F07F0396
:405C8000DB43DAB2074BDA73064B01225A73064A054B1B78DBB223F00103DBB2137080BD0E600040088CFF1F0B60004080B500AFFAF73AFE0E4B1B780E4B1B7EDBB203F0C0
:405CC0000303012B08D00B4BDB7EDBB283F07F03DB43DAB2074BDA76064B01225A76064A054B1B78DBB223F00203DBB2137080BD1E600040088CFF1F0B60004080B400AFB6
:405D0000124B1B78124B93F83030DBB203F00303012B0AD00E4B93F83330DBB283F07F03DB43DAB20A4B83F83320094B012283F83120084A074B1B78DBB223F00803DBB257
:405D40001370BD465DF8047B704700BF3E600040088CFF1F0B60004080B400AF124B1B78124B93F84830DBB203F00303012B0AD00E4B93F84B30DBB283F07F03DB43DAB2CE
:405D80000A4B83F84B20094B012283F84920084A074B1B78DBB223F02003DBB21370BD465DF8047B704700BF5E600040088CFF1F0B60004080B400AFBD465DF8047B70472A
:405DC00080B500AFFEF7CCFF80BD00BF80B483B000AF0123BB7100237B712B4B1B78FB71294AFB79137046E0FB7903F00103002B38D07A79254B13441B783B713B7903F04B
:405E00000103002B29D0BA79214913465B0013449B000B441B79DBB2DBB25BB2002B1CDA7B7903F1804303F5C1437A7902F1804202F5C1421278D2B222F00102D2B21A7052
:405E40007B79144A1A44B97911480B465B000B449B0003445B79DBB213707A790B4B13443A791A707B7910337B71BB790133BB71FB795B08FB71FB79002BB5D100BF0C3728
:405E8000BD465DF8047B70479F60004082600040088CFF1F0E60004080B582B000AF0023FB716F4B1B78BB716E4B1B78DBB2DBB25BB2002B6DDA6C4B1B78DBB2013B052B4D
:405EC00065D801A252F823F0275F0000415F00006D5F00008F5F00008F5F0000E15E0000624B1B78DBB2212B0BD100F0CBF8604B1B889BB2002B15D0FFF712FD0346FB714B
:405F000046E05A4B1B78DBB2222B0BD100F0FAF8574B1B889BB2002B04D0FFF701FD0346FB7135E034E000F037F9514B1B889BB2002B04D0FFF7F4FC0346FB7128E027E0B3
:405F4000BB79032B11D84B4B1B78DBB2002B0CD1474B01221A80BB79474A1344444A5360FFF7DEFC0346FB7112E011E0BB79032B0CD83F4B01221A80BB79404A13443C4ADC
:405F80005360FFF7CDFC0346FB7101E000E000BF61E0344B1B78DBB2DBB25BB2002B5ADB314B1B78DBB20A2B11D00B2B3FD0092B00D050E000F0F0F82D4B1B889BB2002BCA
:405FC00004D0FFF72FFD0346FB7144E043E0BB79032B2BD8274B1B78DBB2002B26D1BB79224A1278D1B2244AD154BB79224AD35CDAB2BB792249CB5CDBB29A4204D2BB79C2
:406000001F4A0021D1540CE0BB791D4AD35CDBB2012B06D9BB79BA7917498A5CD1B2184AD154FFF7A1FD0346FB7114E013E0BB79032B0FD80F4B1B78DBB2012B0AD8BB7977
:406040000C4A1278D1B20D4AD154FFF78DFD0346FB71FFE700BFFB7918460837BD4680BD04600040006000400160004003600040EC8BFF1F026000407C8CFF1F848CFF1F03
:40608000808CFF1F80B584B000AF1A4B1B78DBB2013BDBB2184600F0C1FFF860164B1B78FB72FB681033FB60FB7ADB00FA681344FB60FB685B68FB60FB7A104AD35CDBB218
:4060C000DB00FA681344FB60FB685B68FB60FB682033FB60FB685B687B607B681B78DBB29AB2074B1A80064A7B6853601037BD4680BD00BFFD8BFF1F04600040E88BFF1FDC
:40610000EC8BFF1F80B584B000AF1F4B1B78DBB2013BDBB2184600F081FFF8601B4B1B78FB72FB681033FB60FB7ADB00FA681344FB60FB685B68FB60FB7A154AD35CDBB25D
:40614000DB00FA681344FB60FB685B68FB60FB681833FB60FB685B687B607B6801331B78DBB21B029AB27B681B78DBB29BB213439BB29AB2074B1A807B680233054A5360C0
:406180001037BD4680BD00BFFD8BFF1F04600040E88BFF1FEC8BFF1F80B584B000AF2E4B00221A802D4B1B78DBB2013BDBB2184600F034FFF8602A4B1B78FB72294B1B7826
:4061C000BB72FB681033FB60BB7ADB00FA681344FB60FB685B68FB60BB7A032B38D8BB7A214AD35CDBB2DB00FA681344FB60FB685B68FB60FB7A002B2AD0FB7A032B27D851
:40620000FB7A03F10053013BDB00FA681344FB60164B1B78FB72FB681B78FA7A9A4217D8FB685B687B60FA7A13465B0013449B001A467B6813447B607B685B68064A5360A8
:406240007B681A88044B1A807B689B68024A93601037BD4680BD00BFEC8BFF1FFD8BFF1F0360004004600040E88BFF1F0260004080B400AF024B1B78BD465DF8047B70473F
:406280008F45004080B500AF034B1B78DBB2002B01D000F0ADFB80BDFD8BFF1F80B582B000AFFCF795FD0346FB713E4B1B78DBB2DBB25BB2002B5ADA3B4B01221A700920B3
:4062C000FEF7ACFE394A394B1B78DBB203F07F03DBB213700020FDF7A5FC354A344B1B78DBB223F00603DBB213702E4A2D4B1B78DBB203F07F03DBB213700020FDF792FC1D
:406300002C4B1B78DBB203F00103DAB2264B5A70284A284B1B78DBB223F00103DBB213700120FDF77FFC224A214B1B78DBB223F00103DBB21370204A1F4B1B78DBB243F006
:406340002003DBB213701D4A1C4B1B78DBB223F00103DBB213701A4A194B1B78DBB223F00103DBB213700120FDF75CFC02E00E4B00221A70FB791846FCF72EFD0C201149FC
:40638000FDF7F2FC0C200721FDF716FD0E4B4FF480521A600D4B4FF480521A600837BD4680BD00BF086000400082FF1F10600040944300400960004012600040A543004001
:4063C000B54300407162000080E200E000E100E080B582B000AFFCF7FBFC0346FB71354B1B78002B5ED0344B4FF480521A60334A324B1B78DBB243F00103DBB21370304A85
:406400002F4B1B78DBB243F00103DBB213702D4A2C4B1B78DBB243F00103DBB213702A4A294B1B78DBB243F00103DBB213702820FDF7F8FB2549254B1B78DAB21D4B5B7870
:406440001343DBB20B700020FDF7ECFB1E4A1E4B1B78DBB243F00203DBB213700220FDF7E1FB194A184B1B78DBB243F00403DBB21370174B2B221A70164B50221A70164B71
:4064800003221A70154A154B1B78DBB263F07F03DBB213700120FCF793FC114B04221A70FFF7F0FEFB791846FCF796FC0837BD4680BD00BF0082FF1F80E100E0A543004038
:4064C000B54300409D60004094430040096000409E6000409C60004028600040086000401260004080B586B000AF0023FB7500233B61A64B00221A80A54B1B78DBB2DBB215
:406500005BB2002B80F20781A24B1B78DBB20A2B00F2FF8001A252F823F000BF6766000013670000136700001367000013670000136700004965000013670000DD6600001D
:4065400013670000F3660000934B1B78DBB2012B0ED100F075FDB860BB685B688B4A53608A4B12221A80FFF7DBF90346FB7579E0894B1B78DBB2022B22D1884B1B78DBB2D1
:40658000184600F04BFDB860BB685B687F4A53607E4B5B6803331B78DBB21B029AB27B4B5B6802331B78DBB29BB213439BB2FB80764AFB881380FFF7B3F90346FB7551E0D5
:4065C000754B1B78DBB2032B47D10023FB73744B3B6109E03B691B78DBB21A463B6913443B61FB7B0133FB736C4B1B78DBB2FA7B9A4204D23B691B78DBB2002BEAD1674B73
:406600001B78DBB2002B15D0644B1B78DAB2654B1B7C9A420ED1644B3B61644B1B78DBB2002B02D0624B1B683B61624800F0A0F9604B3B613B691B78DBB2002B12D03B6988
:406640001B78DBB29AB2514B1A80504A3B695360FFF766F90346FB755CE001F099FC0346FB7557E056E04A4B1B78DBB203F00303002B1FD0022B00D02FE0444B02221A8070
:406680004D4B1B78DBB203F07F024C4913465B0013449B000B449B78DAB2494B1A70484B00225A70394B464A5A60FFF739F90346FB7512E0354B02221A80424B1B78DAB25D
:4066C0003F4B1A703E4B00225A70304B3C4A5A60FFF726F90346FB7500BF1BE02B4B01221A802A4B384A5A60FFF71AF90346FB7510E0264B01221A802F4B1B78DBB21A4610
:40670000324B1344214A5360FFF70AF90346FB7500E000BF15E11F4B1B78DBB2013B0A2B00F20E8101A252F823F000BF1D68000041690000AF680000416900005967000035
:406740004169000041690000416900006D67000041690000D9670000104B1B78DAB21C4B1A70FFF701FA0346FB75EAE00B4B1B78DAB2154B1A70174B01221A70012000F0FF
:40678000BBF9FFF7F1F90346FB75DAE0EC8BFF1F00600040016000400360004002600040C4870000A0860000588900000482FF1F8C8CFF1F4481FF1F04600040088CFF1F52
:4067C000888CFF1FFB8BFF1FFD8BFF1FE88BFF1FE48BFF1FFC8BFF1F00F074FD0346002B1BD05A4B1B78DAB2594B1A70594B01221A7000F0E7FA564B1B78DBB21A46544BC6
:406800001B78DBB21946544B5B5CD9B2534B9954FFF7AAF90346FB7593E092E0504B1B78DBB203F00303012B22D0012B0DD3022B00D03BE04B4B1B78DBB2002B04D100F09A
:40684000A1FC0346FB7531E030E0464B1B78DBB2012B0CD1444B1B78DBB223F00203DAB2414B1A70FFF780F90346FB751EE01DE0364B1B78DBB2032B17D83A4B1B78DBB2F8
:40688000D843324B1B78DBB21A461946374B5B5CDBB2D9B2C3B20B40DBB2D9B2334B9954FFF762F90346FB75FFE700BF49E02C4B1B78DBB203F00303012B22D0012B0DD33B
:4068C000022B00D03BE0274B1B78DBB2002B04D100F0E8FB0346FB7531E030E0214B1B78DBB2012B0CD1204B1B78DBB243F00203DAB21D4B1A70FFF737F90346FB751EE08E
:406900001DE0124B1B78DBB2032B17D8154B1B78DBB2D8430D4B1B78DBB21A461946134B5B5CDBB2D9B2C3B20B40DBB2D9B20F4B9954FFF719F90346FB75FFE700BF00E05C
:4069400000BFFB7D18461837BD4680BD04600040F98BFF1FFC8BFF1FE88BFF1F748CFF1F0060004002600040FB8BFF1F008CFF1F80B485B000AF78607B681B78012B30D92E
:406980007B6801331B78032B2BD10023BB730223FB7321E0BB7B5A1CBA7303F1924303F580731B787B73FB7B7A6813447A7B1209D2B211460D4A525C1A70FB7B0233FB73CE
:4069C000FB7B7A6813447A7B02F00F0207498A5C1A70FB7B0233FB737B681B78FA7B9A42D8D31437BD465DF8047B70479086000080B483B000AF00237B710123FB710023DE
:406A0000BB7143E0BB7903F1804303F5C1430C221A70BA792E4B13441D221A70FA792D4913465B0013449B000B445B79DBB2002B21D0FA79274913465B0013449B000B4469
:406A40001B79DBB2DBB25BB2002B05DABA79224B13440C221A7013E0BA791F4B134408221A70FB79013B1A4601239340DAB27B7913437B7104E0BA79174B134480221A7042
:406A8000FB790133FB71BB791033BB71BB795BB2002BB7DA114B55221A70114B20221A70104B00221A70104B2B221A700F4A7B7913700F4BD0221A700D4B50221A700D4B12
:406AC000FF221A700C37BD465DF8047B704700BF81600040088CFF1F0E6000408C600040BC600040BD6000408E6000408F6000409C6000400A60004080B588B000AF03464D
:406B0000FB710023FB7743E0FA7FA84913465B0013449B000B4400221A70FA7FA34913465B0013449B000B4400229A70FA7F9F4913465B0013449B000B4400225A70FA7FE5
:406B40009A4913465B0013449B000B440022DA70FA7F964913465B0013449B000B4400225A71FA7F914913465B0013449B000B44083300221A80FA7F8C4913465B001344FF
:406B80009B000B44083300229A70FB7F0133FB77FB7F082BB8D9FB79002B10D000237B770AE07B7F824A0021D1547B7F814A0021D1547B7F01337B777B7F032BF1D97E4BB6
:406BC0001B78DBB2002B00F0EE807B4B1B78DBB2013BDBB2184600F021FA78617B695B683B613B6907331B7803F04003002B08D0724B1B78DBB243F00103DAB26F4B1A702A
:406C000007E06E4B1B78DBB223F00103DAB26B4B1A707B6908337B617B691B78FB7701237B7796E07B695B68BB610023BB7788E07A7FBB699B7803F07F039A427BD17A7FFB
:406C40005A4913465B0013449B000B4408331B889AB2BB699B889A420BD27A7FBB699888524913465B0013449B000B44083302461A80BB691B781A464D4B9B5CDAB2BB6912
:406C80005B789A4257D1BB69DB7803F00303012B0CBF01230023DBB2FB73BB699B78DBB25BB2002B18DA7A7F404913465B0013449B000B4401225A707A7FFB7B002B01D097
:406CC000072000E00D20394913465B0013449B000B4402465A7117E07A7F344913465B0013449B000B4400225A707A7FFB7B002B01D0052000E009202C4913465B0013446F
:406D00009B000B4402465A717A7FBB699878274913465B0013449B000B4402461A717A7FBB69D878214913465B0013449B000B4402461A700AE0BB7F0133BB77BB6908336A
:406D4000BB61BA7FFB7F9A42FFF472AF7B7F01337B777B7F082B7FF665AF7B695B68BB6100237B7714E0BB699B7803F07F02BB6918780E4913465B0013449B000B440833CC
:406D800002469A707B7F01337B77BB690833BB617A7FFB7F9A42E6D300F064F90246084B1A60FFF725FE2037BD4680BD088CFF1FE88BFF1F748CFF1FFD8BFF1FFB8BFF1F21
:406DC000048CFF1F80B584B000AF8C4B1B78DBB2002B00F00F81894B1B78DBB2013BDBB2184600F01BF978607B6808337B607B681B78FB707B685B68BB600023FB73F4E034
:406E0000BB681B781A467E4B9B5CDAB2BB681B7819467C4B5B5CDBB29A4200F0E080BB681B781A46764B9B5CDAB2BB685B789A4240F0D580BB681A78734B1B78DBB29A4284
:406E400040F0CD80BB689B7803F07F03BB70BB78013BDBB21B017B70BB68DB7803F00303012B0CBF01230023DBB23B70BB689B78DBB25BB2002B18DABA78644913465B0057
:406E800013449B000B4401225A70BA783B78002B01D0072000E00D205C4913465B0013449B000B4402465A7117E0BA78574913465B0013449B000B4400225A70BA783B7853
:406EC000002B01D0052000E00920504913465B0013449B000B4402465A717A784C4B134401221A70BA78BB689888484913465B0013449B000B44083302461A80BA78BB68CD
:406F00009878424913465B0013449B000B4402461A71BA78BB68D8783C4913465B0013449B000B4402461A70BA78384913465B0013449B000B440022DA707B7803F180433F
:406F400003F5C1437A7802F1804202F5C1421278D2B222F00102D2B21A702E4ABB78013BDBB25B00DBB213702A4A2A4B1B78DBB243F00103DBB2137000BF264B1B78DBB2C4
:406F800003F01003002BF8D0BB689B78DBB25BB2002B0DDB2049204B1B78DAB2BB78013B184601238340DBB21343DBB20B700EE01949194B1B78DAB2BB78013B184601239F
:406FC0008340DBB2DB43DBB21340DBB20B70114A104B1B78DBB223F00103DBB21370FB7B0133FB73BB680833BB60FA7BFB789A42FFF406AF1037BD4680BD00BFFD8BFF1F55
:40700000E88BFF1F748CFF1F04600040088CFF1F0E600040146000408F60004080B584B000AF0346FB7100F00BF8F860FB790133DB00FA6813445B6818461037BD4680BDBE
:4070400080B400AF054B1B78DBB2054ADB0013445B681846BD465DF8047B7047F88BFF1F288A000080B582B000AF0D4B1B78DBB2013BDBB21846FFF7D1FF78607B685B6841
:407080001B79FB707B6810337B60FB78DB007A6813447B607B685B6818460837BD4680BDFD8BFF1F80B582B000AF0023FB71324B1B78DBB203F07F03BB71BB79013BDBB265
:4070C0001B017B71BB79002B51D0BB79082B4ED8BA79B97929480B465B000B449B0003449B78DBB243F00103D8B2244913465B0013449B000B4402469A70BA791F491346BF
:407100005B0013449B000B440022DA70BA79B9791A480B465B000B449B0003445B78DBB243F00203D8B2154913465B0013449B000B4402465A70BA79104913465B00134485
:407140009B000B441B79DBB2DBB25BB2002B05DA7A790B4B13448D221A7004E07A79084B134489221A70FEF7FFFC0346FB71FB7918460837BD4680BD04600040088CFF1F85
:407180000E60004080B582B000AF0023FB71494B1B78DBB203F07F03BB71BB79013BDBB21B017B71BB79002B7FD0BB79082B7CD8BA79B97940480B465B000B449B000344EF
:4071C0009B78DBB223F00103D8B23B4913465B0013449B000B4402469A70BA79364913465B0013449B000B440022DA707A79334B13447979314A0A441278D2B202F07F026C
:40720000D2B21A70BA79B9792B480B465B000B449B0003445B78DBB223F00203D8B2264913465B0013449B000B4402465A70BA79214913465B0013449B000B441B79DBB260
